:020000040800F2
:10000000400500209D0100088D1D00085D1A0008B4
:10001000891D0008E102000891200008000000008E
:10002000000000000000000000000000951D000816
:10003000E502000800000000911D0008991D00085D
:10004000B7010008B7010008B7010008B7010008B0
:10005000B7010008B7010008B7010008B7010008A0
:10006000B7010008B7010008B7010008B701000890
:10007000B7010008B7010008B7010008B701000880
:10008000B7010008B7010008B7010008B701000870
:10009000B7010008B7010008B7010008B701000860
:1000A000B7010008B7010008B7010008B701000850
:1000B000551E0008B7010008611E0008B7010008BE
:1000C000B7010008B7010008B7010008B701000830
:1000D000B7010008B7010008B7010008B701000820
:1000E000B7010008B7010008B7010008B701000810
:1000F000B7010008B7010008B7010008B701000800
:10010000B7010008B7010008B7010008B7010008EF
:10011000B7010008B7010008B7010008B7010008DF
:10012000B7010008B7010008B7010008B7010008CF
:10013000B7010008B7010008B7010008B7010008BF
:10014000B7010008B7010008B7010008B7010008AF
:10015000B7010008B7010008B7010008B70100089F
:10016000B7010008B7010008B7010008B70100088F
:10017000B7010008B7010008B7010008000000003F
:10018000B7010008B7010008DFF80CD000F090F8C4
:1001900000480047B5200008400500200648804779
:1001A00006480047FEE7FEE7FEE7FEE7FEE7FEE75C
:1001B000FEE7FEE7FEE7FEE7411E000889010008B2
:1001C0002DE9F05F0546002092469B46884606468C
:1001D000814640241BE0284641464746224600F01F
:1001E00057F853465A46C01A914110D31146184643
:1001F000224600F03EF82D1A67EB01084F462246D2
:100200000120002100F035F817EB00094E41201EB7
:10021000A4F10104DFDC484631462A464346BDE8E6
:10022000F09FD2B201E000F8012B491EFBD27047CB
:100230000022F6E710B513460A4604461946FFF7B2
:10024000F0FF204610BD30B50B46014600202022AD
:10025000012409E021FA02F59D4205D303FA02F5D3
:10026000491B04FA02F52844151EA2F10102F1DC33
:1002700030BD202A04DB203A00FA02F1002070474A
:100280009140C2F1200320FA03F3194390407047D4
:10029000202A04DB203A21FA02F00021704721FADB
:1002A00002F3D040C2F12002914008431946704742
:1002B0001CB509480090094801900546009C06E0DD
:1002C000E06840F0010394E8070098471034AC421E
:1002D000F6D3FFF75DFF0000B4220008D422000827
:1002E000FEE700007047000072B600BFFEE70000A6
:1002F0002DE9F04F83B000F1200200F13E4741F6B6
:100300000045009207F1FF77C4F2020508224FEA88
:10031000B726A84208BF072200254FF000084FF07B
:100320000009072E38BF4FEAB72201920AE000BF4A
:1003300009F1010908F10208B9F1100F05F10405EE
:1003400000F0A2800F68012202FA09FE17EA0E0AE5
:10035000EED0D1F804C003220CF003077E1E02FA8F
:1003600008F4012E6FEA040B12D88468CE6804EA00
:100370000B0406FA08F634438460446824EA0E0647
:10038000CCF3001404FA09F42643466004E000BFED
:10039000032F01D103271EE0C6688C6806EA0B060E
:1003A00004FA08F42643022FC66014D16FF003024A
:1003B000009E02EA590756F807C005F01C040F22F8
:1003C0000B69A2402CEA0202A3401A43F251D1F871
:1003D00004C00CF00307026807FA08F302EA0B02F4
:1003E0001A431CF4403F0260A2D0002243F64403AB
:1003F0000292C4F202031A6843F6004442F48042B7
:100400001A601A68C4F2010402F480420292029A4D
:1004100029F003024FF6084C2244CFF6FF7C52F835
:100420000C3005F00C070F26BE40B343019E06FAC0
:1004300007F73B4342F80C30A2684B6842EA0A07D0
:1004400043F60C4CDE0258BF22EA0A07A760C4F24A
:10045000010CDCF800209E0242EA0A0758BF22EA9B
:100460000A07CCF8007062689E0342EA0A0758BF88
:1004700022EA0A0767602268DB0342EA0A0758BFDC
:1004800022EA0A07276053E703B0BDE8F08F0000B7
:10049000426902EA0103914341EA034181617047E5
:1004A000002A08BF090481617047000040F23C1037
:1004B000C2F200000068704740F2040040F23C11B4
:1004C000C2F20000C2F2000100780A68104408601D
:1004D0007047000080B543F60040C4F20200016896
:1004E00041F400710160016841F4806101600168BC
:1004F00041F480710160032000F086F80F2000F0C5
:1005000005F800F027F8002080BD000070B540F22B
:100510000406C2F2000640F20C013278C2F2000179
:100520004FF47A730968B3FBF2F20446B1FBF2F1BF
:10053000084600F061FB0F2C4FF0010508D838B9D0
:100540004FF0FF3021460022002500F031F87460A2
:10055000284670BD82B0002043F640010190C4F2ED
:1005600002014A6842F480424A604A6802F48042CA
:100570000192019A0090086840F080500860086875
:1005800000F080500090009802B07047002848BFEB
:10059000704700F01F01012202FA01F11C2202EA59
:1005A000D0004EF20012CEF20002815070470000DF
:1005B00010B54EF60C5CCEF2000CDCF80030C3F344
:1005C000022E8EF00704042C28BF0424BEF103037E
:1005D0004FF0FF3E0EFA04F438BF0023A1439940C8
:1005E0000EFA03F39A43114300F00F0200F1604347
:1005F0000901043A03F564436244002848BF02F14C
:100600000C03197010BD00004EF60C51CEF2000123
:100610000A684FF6FF031A4060F30A2242F0806036
:1006200040F0FD7008607047002804BF012070474B
:100630002DE9F04143F60808C4F202080446D8F850
:10064000F8030D4600F00700814207D988F8F853F7
:10065000D8F8F80300F00700A84277D12068810796
:1006600017D5410705D5D8F8001041F4E051C8F876
:100670000010010705D5D8F8001041F46041C8F812
:100680000010D8F80010A26821F0F0011143C8F85A
:100690000010C00740D1D8F8F80300F007008542E9
:1006A00007D288F8F853D8F8F80300F00700A842FA
:1006B0004CD12068410707D5D8F80010E26821F432
:1006C000E0511143C8F80010000708D5D8F8000021
:1006D000216920F4604040EAC100C8F8000000F041
:1006E0007DF8D8F8001042F29C22C1F30311C0F645
:1006F0000002515C40F20C0220FA01F140F20800C5
:10070000C2F200000068C2F200021160FFF7FEFEB4
:100710000020BDE8F08100BF6068811E022907D279
:1007200058F8081C89015CBF0120BDE8F08111E088
:10073000012807D158F8081C89035CBF0120BDE8D7
:10074000F08107E058F8081C890703D40120BDE8B0
:10075000F08100BFD8F8001021F003010843C8F869
:100760000000FFF7A3FE064641F28837D8F80000E4
:10077000616800F00C00B0EB810F8CD0FFF796FEA3
:10078000801BB842F2D90320BDE8F08140F20C0092
:1007900043F60801C2F20000C4F2020100680968D1
:1007A00042F2AC22C1F38221C0F60002515CC84083
:1007B0007047000040F20C0043F60801C2F200004E
:1007C000C4F202010068096842F2AC22C1F342316E
:1007D000C0F60002515CC8407047000010B543F6F7
:1007E0000404C4F202046168C1F3810142F20040D2
:1007F000C0F2F400DFE801F002040A0210BD00BFFD
:1008000041F20020C0F27A0010BD00BF216801F063
:100810003F02216823684902C3F3881106D4A1FB73
:1008200000010023FFF7CCFC07E000BF41F20020ED
:10083000C0F27A004843B0FBF2F021680222C1F313
:10084000014102EB4101B0FBF1F010BD002804BFF3
:10085000012070472DE9F04182B00446007843F64C
:100860000006C007C4F202060CD0B06800F00C000D
:10087000042840F081803068800303D56068002838
:1008800000F06881207880071BD5B06810F00C0F4D
:1008900009D0B06800F00C00082840F0878070682C
:1008A000400200F183803068800703D5E0680128AA
:1008B00040F050813068216920F0F80040EAC10022
:1008C00030602078000713D4207840072AD4A56927
:1008D000002D00F03A81B06800F00C00082840F0CC
:1008E000A580012D40F00E81012002B0BDE8F0810D
:1008F0006069002800F082800020C4F247200121B6
:10090000C0F8801EFFF7D2FD054600BF706F80075C
:10091000DAD4FFF7CBFD401B0228F7D9032002B041
:10092000BDE8F081306C5FEAC0080AD40020019075
:10093000306C40F080503064306C00F0805001909A
:10094000019847F20007C4F200073868C00547D491
:10095000386840F480703860FFF7A8FD054600BF96
:100960003868C0053CD4FFF7A1FD401B0228F7D929
:10097000032002B0BDE8F081B06800F00C00082848
:1009800003D1706840023FF576AF61683068B1F519
:10099000803F07D0B1F5A02F40F09A8040F480202E
:1009A0003060306840F4803030609AE0E0680028C1
:1009B00040F20000C4F247205CD001210160FFF743
:1009C00075FD0546306880073FF574AFFFF76EFD93
:1009D000401B0228F6D9032002B0BDE8F08100BF19
:1009E000A168306F012905D0052955D140F00400D8
:1009F0003067306F40F00100306756E00020C4F2ED
:100A000047200021C0F8801EFFF750FD054600BFBB
:100A1000706F80077FF558AFFFF748FD401B022835
:100A2000F6D9032002B0BDE8F08100BF0027C4F270
:100A3000472700203866FFF739FD022D05460DD106
:100A40003068800140F18A80FFF730FD401B0228AA
:100A50004FF00300F4D902B0BDE8F08130688001A6
:100A600073D5FFF723FD401B02284FF00300F5D993
:100A7000F1E700BF00210160FFF718FD054600BF48
:100A8000306880077FF51DAFFFF710FD401B02287F
:100A90004FF00300F4D9DEE720F001003067306F3B
:100AA000002920F0040030677AD0FFF7FFFC0546EC
:100AB00041F28837306F800700F18480FFF7F6FC41
:100AC000401BB842F6D9032002B0BDE8F08100BF58
:100AD00020F4803030603068002920F480203060BD
:100AE0007AD0FFF7E3FC0546306880033FF5CAAED5
:100AF000FFF7DCFC401B6428F6D9032002B0BDE8F8
:100B0000F08100BF7068E16900F480028A4221D15F
:100B1000216A00F03F028A421CD147F6C071626A26
:100B20000140B1EB821F15D1A16A4FF6FF73C903D3
:100B3000994300F44032A1F580318A420AD1E16A3A
:100B400000F07060B0EB016F04D1002002B0BDE88E
:100B5000F08100BF012002B0BDE8F08104F11C0566
:100B60002FCD084340EA8210D9034FF6FF7291431C
:100B7000A1F5803140EA05600843706001203866C5
:100B8000FFF794FC044600BF30688001DDD4FFF716
:100B90008DFC001B02284FF00300F5D95BE700BF76
:100BA000FFF784FC054641F2883700BF306F8007AD
:100BB00008D5FFF77BFC401BB8424FF00300F5D986
:100BC00049E700BFB8F1000F3FF581AE306C20F06F
:100BD000805030647BE600BFFFF768FC054600BF2D
:100BE000306880037FF54EAEFFF760FC401B642841
:100BF0004FF00300F4D92EE7411E0020B0EB116F37
:100C00001CBF012070474EF21002CEF2000251606C
:100C10004EF62351CEF20001F0230B7007219060B5
:100C200011607047704700007047000090F83C204A
:100C3000012A04BF02207047B0B501F108053CCD80
:100C4000D1E900CE23F47C5322F470521A432EF4DF
:100C5000F0431A432CF4E0431A4324F4C0431A43EC
:100C60002A43C96922F48042036811435964002170
:100C700080F83C100020B0BD90F83C20012A4FF0D5
:100C8000020254D010B580F83D200268D2F804E08A
:100C9000D2F808C00C682EF07003234341F2FF74B1
:100CA000C4F20004A24253600EDC40F2FF73C4F2AF
:100CB00000039A4216DCB2F1804F2BD040F2004381
:100CC000C4F2000324E000BF40F2FF33C4F201038A
:100CD0009A4213DC41F60003C4F200039A4219D091
:100CE000002313E040F60003C4F200039A4211D03F
:100CF00040F60043C4F200030AE000BF44F20003E0
:100D0000C4F201039A4205D040F20043C4F2010349
:100D10009A4204D149682CF0800319439160012163
:100D2000002280F83D1080F83C20BDE810401046BD
:100D300070470000002804BF0120704710B504462A
:100D400090F83D0028B9002084F83C00204600F0CF
:100D50001FF8022084F83D002068211D01F086F86C
:100D6000012084F8460084F83E0084F83F0084F8AF
:100D7000400084F8410084F8420084F8430084F87D
:100D8000440084F8450084F83D00002010BD0000B8
:100D90000068B0F1804F18BF704780B582B0002066
:100DA000019043F64000C4F202000168002241F0C5
:100DB000010101600068012100F00100019001982B
:100DC0001C20FFF7F5FB1C2002B0BDE88040FFF7B8
:100DD000DDBB000090F83D1001291CBF01207047C9
:100DE000022180F83D10006841F2FF72C168C4F230
:100DF0000002904241F00101C1600DDC40F2FF7140
:100E0000C4F20001884215DCB0F1804F2AD040F2D4
:100E10000041C4F2000123E040F2FF31C4F20101BD
:100E2000884213DC41F60001C4F20001884219D067
:100E3000002113E040F60001C4F20001884211D005
:100E400040F60041C4F200010AE000BF44F2000194
:100E5000C4F20101884205D040F20041C4F2010110
:100E6000884206D1816801F00701062904BF0020ED
:100E70007047016841F001010160002070470000E7
:100E800090F83C20012A4FF002026CD080B580F827
:100E90003D20D0F800C04FF67772DCF8083023EA26
:100EA0000202CCF808200B684F2B29DC1F2B45DDF4
:100EB000202B46D0302B44D0402B40F0AF80D1F8CF
:100EC00004E0C968DCF82030DCF8202022F00102C0
:100ED000CCF82020DCF8182022F0F00242EA0111C0
:100EE00023F00A0242EA0E02CCF81810CCF82020B7
:100EF000DCF8081041F0470121F0300128E000BF84
:100F00006F2B33DDB3F5005F74D0B3F5805F21D074
:100F1000702B40F08380D1E901E3C968DCF8082038
:100F200043EA0E0322F47F4243EA01211143CCF845
:100F30000810DCF8081041F0770109E00BB1102B24
:100F40006CD1DCF8081021F07001194341F0070161
:100F5000CCF808100022012180F83D10002180F813
:100F60003C10BDE880401046704700BF502B21D098
:100F7000602B53D1D1F804E0C968DCF82030DCF8EC
:100F8000202022F01002CCF82020DCF8182022F4D7
:100F9000704242EA013123F0A00242EA0E12CCF87C
:100FA0001810CCF82020DCF8081041F0670121F07F
:100FB0001001CDE7D1F804E0C968DCF82030DCF896
:100FC000202022F00102CCF82020DCF8182022F0AA
:100FD000F00242EA011123F00A0242EA0E02CCF8C2
:100FE0001810CCF82020DCF8081041F0570121F04F
:100FF0002001ADE7D1E901E3C968DCF8082043EA44
:101000000E0322F47F4243EA01211143CCF8081079
:10101000DCF8081041F480419AE700BF01229AE70A
:10102000002804BF012070472DE9F047044690F8DE
:101030003D000D4628B9002084F83C00204600F011
:1010400049F8022084F83D00206844F207028168D4
:1010500091438160211D00F009FF20684FF6FF7861
:1010600081688269D0F820C0D5E9003ED5E9026ADE
:1010700043EA0109AB6922EA080246EA03234FF674
:10108000FC46B343D5E9076742EA0A0229691A43D5
:1010900042EA062242EA01112CF0AA026B6942EAF6
:1010A0000E0241EA073142EA0312C0F8089081615A
:1010B0000262012084F8460084F83E0084F83F0074
:1010C00084F8420084F8430084F83D000020BDE825
:1010D000F087000080B586B040F600010068C4F2D9
:1010E0000001002288420592CDE90322029201927A
:1010F00002D006B080BD00BF43F630000092C4F2BB
:101100000200036943F004030361036903F004036D
:101110000093009B0092036843F00803036000689B
:1011200000F00800009000984FF440500190022019
:10113000CDE90202CDE9042001F5013001A9FFF754
:10114000D7F81E2000210022FFF732FA1E20FFF7F9
:101150001DFA06B080BD000080B590F83E2090F8E2
:101160003F3090F842E090F843C004290AD0B9B962
:10117000012A4FF0010208BFBEF1010F34D0104622
:1011800080BD00BF012B4FF0010208BFBCF1010F71
:10119000F5D1022180F83F1080F8431000681EE06E
:1011A000012A4FF0010208BF012BE8D1BEF1010F67
:1011B000E5D1BCF1010FE2D1022280F83E2080F897
:1011C0003F2080F8422080F8432091B10068016AF6
:1011D00021F001010162016A41F001010162102167
:1011E0006FF0100209E000BF022180F83E1080F885
:1011F0004210006801216FF00102036A1A40026286
:10120000026A114301620168002241F0010101609C
:10121000104680BD7047000070B504460068C56880
:101220000669B10716D515F0020113D06FF002015F
:101230000161012121778069800703D02046FFF7F3
:10124000E9FF05E0204600F08FF8204600F0E6F9BF
:1012500000202077700719D515F0040016D02068FB
:101260006FF00401016102212177806910F4407F51
:1012700004D02046FFF7CEFF06E000BF204600F076
:1012800073F8204600F0CAF900202077300717D500
:1012900015F0080014D020686FF0080101610421E6
:1012A0002177C069800703D02046FFF7B3FF05E030
:1012B000204600F059F8204600F0B0F900202077D1
:1012C000F00619D515F0100016D020686FF0100147
:1012D000016108212177C06910F4407F04D02046C5
:1012E000FFF798FF06E000BF204600F03DF82046DB
:1012F00000F094F900202077F00718BF15F00100E6
:1013000002D1300609D412E020686FF001010161BA
:10131000204600F00DFA300609D515F0800006D001
:1013200020686FF0800101612046FFF77BFC7006AA
:1013300009D515F0400006D020686FF0400101612A
:10134000204600F053FAB00658BF70BD15F02000DB
:1013500008D021686FF0200220460A61BDE8704085
:10136000FFF762BC70BD00007047000090F83C3091
:10137000012B04BF022070474FEAB202032A00F299
:10138000FF802DE9F043DFE802F003B13F7F00BFAB
:10139000036840F200461C6A1A6A24F0020422F034
:1013A00001021A621A46D3F804C052F818EF8F6887
:1013B00043F48065C4F20106B54244EA070405D14E
:1013C000CF6824F00C0427F004073C430F68B542B3
:1013D00006D1D1E905582CF440762E4346EA080C94
:1013E0002EF073063743C3F804C09F614F68096944
:1013F0005F631C629F6947F008079F619F6927F040
:1014000004079F61B1E000BF036840F200481C6A16
:101410001A6A24F4007422F480721A621A46D3F80D
:1014200004C052F81CEF8F6843F48065C4F20108D1
:10143000454544EA072408D1CF6840F2FF463F0201
:1014400024F4406427EA06063443D1F80090454569
:1014500006D1D1E905562CF440572E4347EA061C25
:101460002EF0730747EA0907C3F804C0DF614F682D
:101470000969DF631C62DF6947F00807DF61DF6924
:1014800027F00407DF6170E0036840F20045D3F8FD
:1014900020C01A6A43F4806722F480521A621A4606
:1014A0005C6852F81C8FD1F800E08E68C4F2010528
:1014B000AF4204D14D6924F4804444EA85142CF4ED
:1014C000005747EA063728F4E64646EA0E265C60EF
:1014D000DE614E6809691E641F62DF6947F40067B8
:1014E000DF61DF6927F48067DF613DE0036840F278
:1014F00000481C6A1A6A24F0200422F010021A62C2
:101500001A46D3F804C052F818EF8F6843F4806588
:10151000C4F20108454544EA071407D1CF686FF0CB
:10152000400624F0C00406EA07163443D1F80090C0
:10153000454506D1D1E905562CF440672E4347EACC
:10154000860C2EF4E64747EA0927C3F804C09F61DA
:101550004F6809699F631C629F6947F400679F6138
:101560009F6927F480679F6109021368194311601E
:101570000021BDE8F043002280F83C200846704777
:101580000121002280F83C2008467047002804BF53
:101590000120704710B5044690F83D0028B900209E
:1015A00084F83C00204600F01FF8022084F83D003B
:1015B0002068211D00F05AFC012084F8460084F8C0
:1015C0003E0084F83F0084F8400084F8410084F82D
:1015D000420084F8430084F8440084F8450084F80D
:1015E0003D00002010BD000000680021C4F2010190
:1015F000884218BF704781B00020009043F6440035
:10160000C4F20200016841F001010160006800F0CD
:1016100001000090009801B0704700007047000082
:10162000C1B1042908D0082914BF41224022825C9C
:10163000012A05D016E000BF3F22825C012A11D1A9
:101640000222082910D0042914BF80F8412080F814
:101650003F200BE090F83E20012A03D1022280F8BF
:101660003E2003E00120704780F84020006801F030
:101670001F010122036A02FA01F123EA0102026258
:10168000026A114341F2FF72C4F200029042016209
:101690000CDC40F2FF71C4F20001884214DCB0F1AE
:1016A000804F37D040F2004116E000BF40F2FF31DA
:1016B000C4F20101884215DC41F60001C4F20001C8
:1016C000884227D0002115E040F60001C4F2000155
:1016D00088421FD040F60041C4F20001884219D070
:1016E0001FE000BF44F20001C4F20101884211D0A2
:1016F00040F20041C4F20101884212D1416C40F233
:10170000004340F48062C4F2010341F400419A4274
:10171000416406D1816801F00701062904BF002059
:101720007047016841F0010101600020704700002E
:1017300040F26401C2F20001884218BF7047B0B5A0
:1017400040F2AC00C2F2000000689FED1E1A90ED5E
:10175000090A9FED1E2AB8EE400A20EE010A9FED0D
:101760001A1A002520EE010A80EE020A456240F2B4
:101770001C00C2F20000006840F210044FF46162E5
:10178000C2F20004026422783220BDEEC00A10EEDC
:10179000101AC4E90110501CC1B2652920700DD384
:1017A00041F20040C4F202004FF48061FEF770FE87
:1017B000D4E9011206A000F0A7FC2570BDE8B040F6
:1017C000704700BFA69B443DC3F54840666626416E
:1017D000456E636F646572203D20256420204D6F47
:1017E000746F203D202564200D0A00007047000022
:1017F000002804BF0120704710B5044690F841004E
:1018000028B9002084F84000204600F021F8242068
:1018100084F841002068C16821F40051C16020466D
:1018200000F0C2FB2068016921F490410161416927
:1018300021F02A014161C16841F40051C1600020DA
:101840002021606484F8411084F84210606310BD68
:1018500080B586B041F200010068C4F201010022A7
:1018600088420592CDE903220292019202D006B08D
:1018700080BD00BF43F630000092C4F2020043690D
:1018800043F010034361436903F010030093009B8E
:101890000092036843F001030360006800F0010058
:1018A000009000984FF4C06001900220CDE9020240
:1018B000032004900720059001F5704001A9FEF770
:1018C00017FD06B080BD00002DE9F04381B004464D
:1018D00090F84100202809D100294FF0010018BFDD
:1018E000002A07D101B0BDE8F08300BF022001B09B
:1018F000BDE8F0830020606421201D460E4684F878
:1019000041001746FEF7D2FDA784E784A16881460F
:10191000B1F5805F02D1206900285DD037460020F4
:10192000E28C2168002A5DD06A1C24D0002D4AD0A8
:10193000804600BF0868000608D4FEF7B7FDA0EB9C
:101940000900A8427AD82168C868F3E717B117F8E8
:10195000010B04E038F8020B00276FF35F204860AA
:10196000E08C0138E084E08C0028E3D13AE000BF4D
:101970000A68120609D40A68120606D40A68120612
:101980005CBF0A685FEA0262F2D51FB117F8012B4B
:1019900005E000BF30F8022B00276FF35F224A609A
:1019A000E28C013AE284E28C002AE4D11AE000BF22
:1019B00030F8022B00276FF35F224A60E28C013A75
:1019C000E284E28C72B10A68120635D5002FEFD09E
:1019D00017F8012BF1E700BF00273046E28C2168A1
:1019E000002AA1D1086840061ED42DB3681C14D16A
:1019F000086840062AD40868400627D408684006CC
:101A000024D4086840064FF00000F1D50DE000BF77
:101A10002068C1680068400618D4FEF747FDA0EBB7
:101A20000900A842F4D909E00020202184F84110DF
:101A300001B0BDE8F08300BFFEF738FD0320202190
:101A400084F8411001B0BDE8F08300BF00202021E0
:101A500084F8411001B0BDE8F0830000FEE700000B
:101A60002DE9F04186B0002743F630000597CDE917
:101A70000377CDE901770097C4F20200016841F2D3
:101A8000000441F0200101600168C4F2020401F089
:101A90002001009100990097016804F5806541F0EC
:101AA000800101600168002201F08001009100992D
:101AB000009701684FF4806641F0100101600168F1
:101AC00001F01001009100990097016841F00801B0
:101AD0000160016801F00801009100990097016818
:101AE00041F00101016000684FF4806100F00100E5
:101AF000009000982846FEF7D3FC20464FF4805112
:101B00000022FEF7CDFC20464FF4005101224FF099
:101B10000108FEF7C5FCCDE9016801AE2846314653
:101B2000CDE90377FEF7E4FB4FF44050CDE901081F
:101B300020463146CDE90377FEF7DAFB06B0BDE873
:101B4000F081000070B598B0002540F21C00C4F28E
:101B500001050021C2F2000041F61F421191CDE9BA
:101B60000F11CDE90D11CDE90B11CDE90911CDE929
:101B70000711CDE90511CDE90311CDE90111C0E946
:101B80000051C0E90212C0E904118161FFF7FEFCB7
:101B9000002818BFFEF7A8FB40F21C00C2F20000AC
:101BA00010A9FFF769F8002818BFFEF79DFB602019
:101BB00009900020CDE90A00CDE90C00CDE90E0026
:101BC00040F21C00C2F2000009A90022FFF7CEFB80
:101BD000002818BFFEF788FB40F21C00C2F200008C
:101BE00009A90C22FFF7C2FB002818BFFEF77CFBF7
:101BF00040F21C044FF40050C2F20004002606908C
:101C000001A920460596CDE90366CDE9016608964F
:101C1000FFF70CF8002818BFFEF766FB2068179640
:101C2000A842CDE915661496139601D018B070BD80
:101C3000002043F630011290C4F202010A6842F01B
:101C400010020A60096801F01001129112994FF414
:101C5000844113910221CDE91410169001201790B0
:101C600005F5883013A9FEF743FB18B070BD0000DE
:101C700080B586B040F264000021C2F200004FF04F
:101C8000630C0591CDE90311CDE900114FF08042BD
:101C900041F61F43C0E9021C01618021C0E9002315
:101CA0008161FFF747F8002818BFFEF71DFB4FF4CE
:101CB0008050029040F26400C2F2000002A9FFF7D7
:101CC000DFF8002818BFFEF70FFB40F26400C2F2F5
:101CD00000006946FEF7D0FF002818BFFEF704FB9E
:101CE00006B080BD80B58CB040F2AC0040F600027A
:101CF0000021C2F20000C4F200024FF6FF73C0E9F7
:101D000000210122CDE90011C0E9021301618161C6
:101D1000CDE90321CDE90521CDE90711CDE909215F
:101D20000B9103A9FFF77CF9002818BFFEF7DCFA36
:101D300040F2AC00C2F200006946FEF79DFF0028A9
:101D400018BFFEF7D1FA0CB080BD000080B540F29C
:101D5000F40041F20001C2F20000C4F201010023CC
:101D60004FF00C0C4FF4E13280E80E00C0E9033371
:101D7000C0E905C3C361FFF73BFD002808BF80BD74
:101D8000BDE88040FEF7B0BAFEE70000FEE70000C5
:101D90007047000070470000FEF78EBB70B592B030
:101DA00006AC20463021FEF743FA002543F64000FA
:101DB0000595CDE90355CDE901550095C4F2020022
:101DC0000168022641F080510160006800F08050F7
:101DD0000090009847F200000095C4F200000168EE
:101DE00041F4804101600068482100F48040009087
:101DF0000098012006904FF4803007904FF4800047
:101E00000D9004200E90119020460C96CDE90F16EF
:101E1000FEF71CFD10B172B6FEE700BF0F20CDE942
:101E200001064FF48050CDE9040001A8022103957A
:101E3000FEF7FAFB10B172B6FEE700BF12B070BD3C
:101E40004EF68850CEF20000016841F47001016046
:101E50007047000040F26400C2F20000FFF7DCB9F6
:101E600040F2AC00C2F20000FFF7D6B9B0B540F6C0
:101E7000FF3E0568C4F2000E40F2004C7045C4F20B
:101E8000010C25DCB0F1804F2FD040F20043C4F2AA
:101E90000003984229D040F60003C4F200039842A0
:101EA00023D041F6FF73C4F20003984228DC70454A
:101EB0003ADCB0F1804F5BD040F20043C4F2000343
:101EC000984255D040F60003C4F200034EE000BF34
:101ED00040F60043C4F20003984206D0604504D0A7
:101EE0000023C4F201039842DBD14B6825F0700255
:101EF00043EA020541F6FF73C4F200039842D6DDBF
:101F000043F6FF73C4F2010398421FDC42F2000360
:101F1000C4F2000398422BD00023C4F2010398427C
:101F200026D0604524D028E040F60043C4F20003E8
:101F300098421DD041F60003C4F20003984217D026
:101F400041F60043C4F2000310E000BF44F2000376
:101F5000C4F2010398420BD044F60003C4F201031B
:101F6000984205D044F20043C4F20103984204D1E0
:101F7000CB6825F4407243EA02050A688C684B6915
:101F8000C46240F480648262644504BF09690163ED
:101F9000026825F0800142F0040219430260012228
:101FA00042610160B0BD0000B0B50446006804F1B4
:101FB00008030ECB0569194325F440552A430261F5
:101FC0006269E3691143C268194349F20C639A4399
:101FD0001143C1604169A26921F4407141F200439B
:101FE000114340F48062C4F201039A42416103D17B
:101FF000FEF7E0FB02E000BFFEF7C8FBE1694FF629
:102000009C7563681922C0F6FF75B1F5004FA0FBFF
:1020100002011FD15A00DB0FFEF7D2F848F21F5120
:10202000C5F2EB11A0FB01235A0905F1805302FB15
:102030000300322303EBC000A0FB01014FF4F87052
:1020400000EA111000EB0210C1F3421108442168AC
:102050008860B0BD9A009B0FFEF7B2F848F21F519E
:10206000C5F2EB11A0FB01235A0902FB0500322344
:1020700003EB0010A0FB0101F02000EA511000EB7F
:102080000210C1F34311084421688860B0BD00000C
:10209000FEE7000080B582B0019040F2F400C2F289
:1020A000000001A901224FF6FF73FFF70DFC019814
:1020B00002B080BDFEF70EFAFFF770FEFFF7D0FC0E
:1020C000FFF744FEFFF73EFDFFF7D2FDFFF70AFEE4
:1020D00040F21C00C2F200000C21FFF7A1FA40F20E
:1020E000AC04C2F2000420460021FFF735F8204678
:1020F0000421FFF731F840F26400C2F20000FEF75D
:1021000069FE00BFFEE700000FB4054B10B503A940
:10211000044A029800F018F810BC5DF814FB0000A7
:10212000952000080000002002E008C8121F08C126
:10213000002AFAD170477047002001E001C1121F48
:10214000002AFBD1704700002DE9FF4F89B09B4664
:102150000446002506E025280BD05A460B999047E7
:10216000641C6D1C20780028F5D10DB02846BDE810
:10217000F08F0027B8460122474900E0074314F8D2
:10218000013F203B02FA03F00842F7D120782E28C5
:1021900019D114F8010F47F004072A280ED06FF068
:1021A0002F022078A0F1300109290CD808EB880112
:1021B00002EB410100EB0108641CF2E70A98641C81
:1021C00050F8048B0A9020780028CED0642808D0DC
:1021D000692806D075281ED05A460B9990476D1C69
:1021E00058E00A994FF00A0901C90A91002802DA59
:1021F00040422D2102E0390504D52B218DF8201015
:10220000012103E0F90704D02021F7E78A4608AE50
:102210000DE00021FAE70A994FF00A0901C90A9175
:10222000F7E74946FEF70FF8303106F8011D0028A0
:10223000F7D1ADEB060000F12009780701D44FF08B
:102240000108C84502DDA8EB090000E00020804637
:10225000002706E008A85A46C05D0B9990476D1C00
:102260007F1C5745F6DB04E030205A460B99904717
:102270006D1CB8F10001A8F10108F5DC05E016F8C5
:10228000010B5A460B9990476D1CB9F10001A9F159
:102290000109F4DC641C65E7092801000000000066
:1022A0000000000001020304060708090000000006
:1022B00001020304D82200080000002010000000E2
:1022C00028210008E8220008100000203005000046
:1022D000382100080000000000000000010000009C
:0822E000100000000024F400CE
:040000050800018965
:00000001FF
