:020000040800F2
:10000000D00500209D010008112C00088523000860
:100010000D2C000815080008753A000800000000C3
:100020000000000000000000000000007937000818
:100030001908000800000000753700087D37000827
:10004000B7010008B7010008B7010008B7010008B0
:10005000B7010008B70100081D080008B701000833
:10006000B7010008B7010008B7010008B701000890
:10007000B7010008B7010008B7010008B701000880
:10008000B7010008B7010008B7010008B701000870
:10009000B7010008B7010008B7010008B701000860
:1000A000B7010008B7010008B7010008B701000850
:1000B00039380008B701000845380008B7010008C2
:1000C000B7010008B7010008B7010008B701000830
:1000D000B7010008B7010008B7010008B701000820
:1000E000B7010008B7010008B7010008B701000810
:1000F000B7010008B7010008B7010008B701000800
:10010000B7010008B7010008B7010008B7010008EF
:10011000B7010008B7010008B7010008B7010008DF
:10012000B7010008B7010008B7010008B7010008CF
:10013000B7010008B7010008B7010008B7010008BF
:10014000B7010008B7010008B7010008B7010008AF
:10015000B7010008B7010008B7010008B70100089F
:10016000B7010008B7010008B7010008B70100088F
:10017000B7010008B7010008B7010008000000003F
:10018000B7010008B7010008DFF80CD000F018FB39
:1001900000480047993A0008D005002006488047EB
:1001A00006480047FEE7FEE7FEE7FEE7FEE7FEE75C
:1001B000FEE7FEE7FEE7FEE72538000889010008B4
:1001C0002DE9F05F0546002092469B46884606468C
:1001D000814640241BE0284641464746224600F01F
:1001E00002F953465A46C01A914110D31146184697
:1001F000224600F0E9F82D1A67EB01084F46224627
:100200000120002100F0E0F817EB00094E41201E0C
:10021000A4F10104DFDC484631462A464346BDE8E6
:10022000F09FD2B201E000F8012B491EFBD27047CB
:100230000022F6E710B513460A4604461946FFF7B2
:10024000F0FF204610BD2DE9F04D81EA030404F0D3
:10025000004B21F0004514464FF0000A23F0004106
:1002600050EA050220D054EA01021DD0C5F30A5716
:100270000246C5F31303C1F31300C1F30A5640F459
:10028000801543F48013A7EB0608101BD64608F22E
:10029000FD3873EB050002D308F1010801E0921864
:1002A0005B41B8F1000F03DA00200146BDE8F08D94
:1002B00000204FF48011064684460EE0171B73EBB6
:1002C000050705D3121B63EB050306434CEA010C3B
:1002D00049084FEA300092185B4150EA0107EDD11E
:1002E00052EA030012D082EA040083EA05010843BF
:1002F00005D0101BAB4106D20122002306E00022EC
:100300004FF0004302E06FF0010253101AEB0600B9
:100310004CEB085110EB0A0041EB0B01BDE8F04D2E
:1003200000F0A8B80EB540F2334102910021CDE9AA
:1003300000110A460B4600F0ACF803B000BD00F017
:10034000004230F000400AD0C10D01F56071C0F3E9
:10035000160042EA0151C2084007114370470020CD
:100360000146704701F0004330B421F0004150EAEB
:10037000010206D00A0DA2F56072C1F31301002A32
:1003800002DC30BC00207047440F44EAC104C100C5
:10039000E01830BC00EBC25000F035B830B50B4669
:1003A000014600202022012409E021FA02F59D42A5
:1003B00005D303FA02F5491B04FA02F52844151E79
:1003C000A2F10102F1DC30BD202A04DB203A00FA60
:1003D00002F1002070479140C2F1200320FA03F39C
:1003E000194390407047202A04DB203A21FA02F09A
:1003F0000021704721FA02F3D040C2F1200291405F
:100400000843194670470029A8BF7047401C49009F
:1004100008BF20F00100704710B4B0FA80FC00FA69
:100420000CF050EA010404BF10BC704749B1CCF194
:10043000200421FA04F411FA0CF118BF0121214320
:100440000843A3EB0C01CB1D4FEA00614FEA1020DB
:1004500042BF002010BC704700EBC350104400297D
:10046000A4BF10BC7047401C490008BF20F0010029
:1004700010BC704710B5141E73F1000408DA401C5C
:1004800041F1000192185B411A4301D120F00100B3
:1004900010BD2DE9F04D92469B4611B1B1FA81F2A3
:1004A00002E0B0FA80F220329046FFF78DFF04465A
:1004B0000F4640EA0A0041EA0B0153465A460843F8
:1004C00013D0114653EA010019D0C8F1400250463A
:1004D000FFF789FF05460E46504659464246FFF74C
:1004E00073FF084305D0012004E020463946BDE8EB
:1004F000F08D0020054346EAE0762C4337430A9806
:100500006305E40AA0EB08000022FD0A44EA475410
:100510000A3002D500200146E9E7010510196941BA
:10052000DDE9084500196941BDE8F04DA2E72DE974
:10053000FE4F804681EA0300C00F0C46009021F078
:10054000004123F00045B8EB0200A94105D2404626
:10055000214690461C460B46024623F000401043BD
:1005600047D0270DC7F30A00C3F30A510290401A7F
:10057000019040286BDAC3F3130040F4801B00980D
:10058000924620B10023D2EB030A63EB0B0B0198D8
:100590005946C0F140025046FFF716FF06460D4689
:1005A00050465946019A00F023F910EB08006141CA
:1005B000002487EA115284EAE7731A4340D0009A74
:1005C00062B3019A012A4FEA075215DC001B61EB66
:1005D00002014FF0004202EA0752CDE90042001C3E
:1005E00041F5801132462B46FFF753FF03B0BDE8BB
:1005F000F08F40462146F9E7001B61EB0201001C29
:1006000041F5801300185B412018A2F5001747EB55
:10061000030140EAD570B6196D4111E06D084FEA4B
:10062000360645EAC0754FEA0752001B61EB02012E
:10063000001C41F5801149084FEA30000019514172
:1006400032462B4603B0BDE8F04FFFF713BF0098CA
:10065000012240000023D0EB020263EBE07300981C
:1006600021464FEAE074B8EB000061EB0401E9E7D2
:1006700083F000435BE781F0004158E72DE9FE4F2E
:1006800081EA030404F0004421F0004100944FF09B
:10069000000B23F0004350EA01045ED052EA030449
:1006A0005BD0C3F30A54C1F30A552C44A4F2F334CB
:1006B0000194A0FB0254C1F3130141F48011C3F370
:1006C000130343F4801301FB024400FB034E840A2E
:1006D000970A44EA815447EA8357A4FB07680295C6
:1006E0008D0A05FB07854FEA932C04FB0C54270564
:1006F000029D4FEA065847EA1637B5EB08056EEB40
:10070000070C870E920E47EA811742EA8312A7FB75
:100710000201B6EB0B0164EB00042B0D43EA0C3332
:100720005E1844EB1C50DA465146E7FB0201C5F364
:1007300013044FEA0B3343EA14534FEA0432019C8B
:1007400043EA0603A4F10C040294009CCDE900B432
:10075000FFF79FFE03B0BDE8F08F00200146F9E7E8
:10076000C1F30A52C1F3130140F2FF3341F4801187
:100770009A4202DA00200146704740F233439A421F
:10078000A2F2334202DC5242FFF72DBEFFF71CBE3D
:1007900030B5041E71F1000404DB4FF00044404208
:1007A00064EB0101141E73F1000405DB1C464FF0DD
:1007B0000043524263EB0403994208BF904230BDAC
:1007C0001CB509480090094801900546009C06E0C8
:1007D000E06840F0010394E8070098471034AC4209
:1007E000F6D3FFF7D5FC0000A44D0008C44D000867
:1007F000202A06DBCB17203A41FA02F043EAE073E5
:1008000006E041FA02F3D040C2F1200291400843D1
:1008100019467047FEE7000070470000012000F015
:1008200039B8000072B600BFFEE70000B0B504465C
:1008300000F018F9054640F21000C2F200000078FE
:10084000611C18BF044400BF00F00CF9401BA0421B
:10085000FAD3B0BD012818BF704710B51420FFF7B8
:10086000E5FF0020C4F202000121012400F0EEF8AF
:10087000012806D140F23800C2F2000001780131AF
:10088000017043F61440C4F201000460BDE810405A
:100890007047000043F61441C4F201010A680242A5
:1008A00014BF08607047FFF7D5BF00002DE9F04F77
:1008B00083B000F1200200F13E4741F6004500926E
:1008C00007F1FF77C4F2020508224FEAB726A842D3
:1008D00008BF072200254FF000084FF00009072E3F
:1008E00038BF4FEAB72201920AE000BF09F10109BF
:1008F00008F10208B9F1100F05F1040500F0A2801B
:100900000F68012202FA09FE17EA0E0AEED0D1F8AA
:1009100004C003220CF003077E1E02FA08F4012E25
:100920006FEA040B12D88468CE6804EA0B0406FA56
:1009300008F634438460446824EA0E06CCF30014BD
:1009400004FA09F42643466004E000BF032F01D1F6
:1009500003271EE0C6688C6806EA0B0604FA08F452
:100960002643022FC66014D16FF00302009E02EAF4
:10097000590756F807C005F01C040F220B69A24066
:100980002CEA0202A3401A43F251D1F804C00CF041
:100990000307026807FA08F302EA0B021A431CF481
:1009A000403F0260A2D0002243F644030292C4F208
:1009B00002031A6843F6004442F480421A601A683F
:1009C000C4F2010402F480420292029A29F0030266
:1009D0004FF6084C2244CFF6FF7C52F80C3005F05D
:1009E0000C070F26BE40B343019E06FA07F73B43B0
:1009F00042F80C30A2684B6842EA0A0743F60C4CF6
:100A0000DE0258BF22EA0A07A760C4F2010CDCF834
:100A100000209E0242EA0A0758BF22EA0A07CCF8E1
:100A2000007062689E0342EA0A0758BF22EA0A077A
:100A300067602268DB0342EA0A0758BF22EA0A0716
:100A4000276053E703B0BDE8F08F0000006908405D
:100A500018BF012070470000002A08BF0904816107
:100A60007047000040F2C810C2F2000000687047F2
:100A7000002804BF01207047F0B581B0044690F80B
:100A80003D0028B9002084F83C00204600F050F9D1
:100A9000242084F83D002068016821F001010160F4
:100AA000016841F400410160016821F400410160E6
:100AB00000F0E2FA636848F2A16CC0F2010C40F663
:100AC0000011C0F23D0163453CBF48F28041C0F2D5
:100AD0001E01884202D2012001B0F0BD4DF68361B3
:100AE000C4F21B31A0FB01122168970CD1F804E07D
:100AF0004FF496762EF03F0545EA92454D607743D8
:100B000048F638160D6AC0F24106A7FB067625F0B6
:100B10003F07634538BF960C721C3A430A62CA69A4
:100B200048F2A0664CF6FF77C0F20106B34222EA13
:100B300007020BD801385B00B0FBF3F001306FF314
:100B40001F30042898BF04201BE000BFA7680138AD
:100B500057B119277B43B0FBF3F001306FF31F301F
:100B600070B100F5804007E003EB4303B0FBF3F006
:100B700001306FF31F3018B100F5004001E000BFF5
:100B800001201043C8610868D4E9072320F0C000A1
:100B9000104318430860886848F2FF3204F10C07DC
:100BA00090438CCF18431043A6698860C86820F032
:100BB000FF0038433043C860086840F00100086017
:100BC00000202021206484F83D10206384F83E003A
:100BD00001B0F0BD2DE9F04383B0994616460F46AB
:100BE0000446FFF73FFF94F83D10202924D1054625
:100BF000206800BF816989071AD5FFF733FF411BC1
:100C000020681A29F6D381698907F3D500202021AD
:100C1000206384F83D1084F83E00216C41F02001EF
:100C2000216484F83C00022003B0BDE8F08300BFDB
:100C300094F83C10012903D1022003B0BDE8F083F1
:100C4000012284F83C200368DDE90B180A9ADB07CF
:100C500003D1036843F001030360036823F40063D6
:100C60000360212084F83D00402084F83E000020ED
:100C7000206462626185608D394620850020CFF650
:100C8000FF70E062204632464B46CDE9008501F018
:100C90007BFB18B1012003B0BDE8F083208D98B92B
:100CA000204641462A4601F0D3FB88B3206C042835
:100CB000F0D12068016841F400710160012003B0A7
:100CC000BDE8F0830004EBD0204641462A4601F0FF
:100CD0006FFD0028EAD1616A2268084610F8013BDE
:100CE0001361238D6062581E2085678D013F6785E3
:100CF00057697F07E6D50704E4D048781061881C5F
:100D00006062981E2085618D01396185DAE700BF38
:100D10002068016841F400710160202084F83D00E2
:100D2000002084F83E0084F83C0003B0BDE8F08366
:100D3000B0B586B045F200410068C4F2000100245D
:100D400088420594CDE903440294019402D006B090
:100D5000B0BD00BF43F630050094C4F20205286818
:100D600040F002002860286800F00200009000981F
:100D7000C02001901220CDE9020403200490042039
:100D8000059001F5D83001A9FFF790FD009428697E
:100D900040F400102861286900F4001000900098C9
:100DA00006B0B0BD40F2100040F2C811C2F200001F
:100DB000C2F2000100780A68104408607047000021
:100DC00080B543F60040C4F20200016841F40071AE
:100DD0000160016841F480610160016841F4807143
:100DE0000160032000F086F8002000F005F800F014
:100DF00027F8002080BD000070B540F21006C2F256
:100E0000000640F230013278C2F200014FF47A73EA
:100E10000968B3FBF2F20446B1FBF2F1084600F0B8
:100E200061FB0F2C4FF0010508D838B94FF0FF30A7
:100E300021460022002500F031F87460284670BD7C
:100E400082B0002043F640010190C4F202014A68DA
:100E500042F480424A604A6802F480420192019A58
:100E60000090086840F080500860086800F08050EA
:100E70000090009802B07047002848BF704700F00B
:100E80001F01012202FA01F11C2202EAD0004EF2F7
:100E90000012CEF2000281507047000010B54EF6ED
:100EA0000C5CCEF2000CDCF80030C3F3022E8EF0A6
:100EB0000704042C28BF0424BEF103034FF0FF3EB7
:100EC0000EFA04F438BF0023A14399400EFA03F34D
:100ED0009A43114300F00F0200F160430901043A04
:100EE00003F564436244002848BF02F10C03197003
:100EF00010BD00004EF60C51CEF200010A684FF60C
:100F0000FF031A4060F30A2242F0806040F0FD7057
:100F100008607047002804BF012070472DE9F041A8
:100F200043F60808C4F202080446D8F8F8030D4650
:100F300000F00700814207D988F8F853D8F8F80381
:100F400000F00700A84277D12068810717D5410734
:100F500005D5D8F8001041F4E051C8F80010010799
:100F600005D5D8F8001041F46041C8F80010D8F851
:100F70000010A26821F0F0011143C8F80010C0076A
:100F800040D1D8F8F80300F00700854207D288F86E
:100F9000F853D8F8F80300F00700A8424CD12068B5
:100FA000410707D5D8F80010E26821F4E051114359
:100FB000C8F80010000708D5D8F80000216920F40F
:100FC000604040EAC100C8F8000000F07DF8D8F8A1
:100FD000001044F27E52C1F30311C0F60002515CCE
:100FE00040F2300220FA01F140F21400C2F2000097
:100FF0000068C2F200021160FFF7FEFE0020BDE8AB
:10100000F08100BF6068811E022907D258F8081CD1
:1010100089015CBF0120BDE8F08111E0012807D102
:1010200058F8081C89035CBF0120BDE8F08107E087
:1010300058F8081C890703D40120BDE8F08100BFDF
:10104000D8F8001021F003010843C8F80000FFF7AA
:1010500009FD064641F28837D8F80000616800F0C3
:101060000C00B0EB810F8CD0FFF7FCFC801BB8426A
:10107000F2D90320BDE8F08140F2300043F60801C8
:10108000C2F20000C4F202010068096844F28E5204
:10109000C1F38221C0F60002515CC84070470000D5
:1010A00040F2300043F60801C2F20000C4F202012F
:1010B0000068096844F28E52C1F34231C0F6000262
:1010C000515CC8407047000010B543F60404C4F2F8
:1010D00002046168C1F3810142F20040C0F2F400F1
:1010E000DFE801F002040A0210BD00BF41F2002057
:1010F000C0F27A0010BD00BF216801F03F022168F4
:1011000023684902C3F3881106D4A1FB0001002320
:10111000FFF756F807E000BF41F20020C0F27A0066
:101120004843B0FBF2F021680222C1F3014102EB17
:101130004101B0FBF1F010BD002804BF0120704751
:101140002DE9F04182B00446007843F60006C0075E
:10115000C4F202060CD0B06800F00C00042840F085
:1011600081803068800303D56068002800F06881C2
:10117000207880071BD5B06810F00C0F09D0B0683C
:1011800000F00C00082840F087807068400200F1F1
:1011900083803068800703D5E068012840F05081E3
:1011A0003068216920F0F80040EAC1003060207802
:1011B000000713D4207840072AD4A569002D00F039
:1011C0003A81B06800F00C00082840F0A580012D9D
:1011D00040F00E81012002B0BDE8F0816069002876
:1011E00000F082800020C4F247200121C0F8801E58
:1011F000FFF738FC054600BF706F8007DAD4FFF7B1
:1012000031FC401B0228F7D9032002B0BDE8F08171
:10121000306C5FEAC0080AD400200190306C40F0C6
:1012200080503064306C00F080500190019847F29B
:101230000007C4F200073868C00547D4386840F496
:1012400080703860FFF70EFC054600BF3868C005A7
:101250003CD4FFF707FC401B0228F7D9032002B05B
:10126000BDE8F081B06800F00C00082803D1706878
:1012700040023FF576AF61683068B1F5803F07D036
:10128000B1F5A02F40F09A8040F4802030603068A3
:1012900040F4803030609AE0E068002840F20000BE
:1012A000C4F247205CD001210160FFF7DBFB05465B
:1012B000306880073FF574AFFFF7D4FB401B02286E
:1012C000F6D9032002B0BDE8F08100BFA168306FFD
:1012D000012905D0052955D140F004003067306F51
:1012E00040F00100306756E00020C4F247200021A2
:1012F000C0F8801EFFF7B6FB054600BF706F800781
:101300007FF558AFFFF7AEFB401B0228F6D903204C
:1013100002B0BDE8F08100BF0027C4F247270020DB
:101320003866FFF79FFB022D05460DD1306880011E
:1013300040F18A80FFF796FB401B02284FF0030024
:10134000F4D902B0BDE8F0813068800173D5FFF7B1
:1013500089FB401B02284FF00300F5D9F1E700BFDD
:1013600000210160FFF77EFB054600BF3068800763
:101370007FF51DAFFFF776FB401B02284FF00300FF
:10138000F4D9DEE720F001003067306F002920F04B
:10139000040030677AD0FFF765FB054641F28837D5
:1013A000306F800700F18480FFF75CFB401BB84280
:1013B000F6D9032002B0BDE8F08100BF20F48030F0
:1013C00030603068002920F4802030607AD0FFF748
:1013D00049FB0546306880033FF5CAAEFFF742FB84
:1013E000401B6428F6D9032002B0BDE8F08100BF9D
:1013F0007068E16900F480028A4221D1216A00F01C
:101400003F028A421CD147F6C071626A0140B1EBCB
:10141000821F15D1A16A4FF6FF73C903994300F4E7
:101420004032A1F580318A420AD1E16A00F0706051
:10143000B0EB016F04D1002002B0BDE8F08100BF25
:10144000012002B0BDE8F08104F11C052FCD084356
:1014500040EA8210D9034FF6FF729143A1F5803123
:1014600040EA05600843706001203866FFF7FAFA29
:10147000044600BF30688001DDD4FFF7F3FA001B9B
:1014800002284FF00300F5D95BE700BFFFF7EAFA47
:10149000054641F2883700BF306F800708D5FFF757
:1014A000E1FA401BB8424FF00300F5D949E700BF0D
:1014B000B8F1000F3FF581AE306C20F08050306401
:1014C0007BE600BFFFF7CEFA054600BF3068800319
:1014D0007FF54EAEFFF7C6FA401B64284FF00300BD
:1014E000F4D92EE7411E0020B0EB116F1CBF012084
:1014F00070474EF21002CEF2000251604EF62351B8
:10150000CEF20001F0230B7007219060116070474C
:10151000704700007047000090F83C20012A04BF8B
:1015200002207047B0B501F108053CCDD1E900CEED
:1015300023F47C5322F470521A432EF4F0431A43DE
:101540002CF4E0431A4324F4C0431A432A43C969E4
:1015500022F48042036811435964002180F83C1052
:101560000020B0BD90F83C20012A4FF0020254D078
:1015700010B580F83D200268D2F804E0D2F808C027
:101580000C682EF07003234341F2FF74C4F2000490
:10159000A24253600EDC40F2FF73C4F200039A4291
:1015A00016DCB2F1804F2BD040F20043C4F20003AE
:1015B00024E000BF40F2FF33C4F201039A4213DC7F
:1015C00041F60003C4F200039A4219D0002313E04D
:1015D00040F60003C4F200039A4211D040F60043E3
:1015E000C4F200030AE000BF44F20003C4F20103A6
:1015F0009A4205D040F20043C4F201039A4204D15A
:1016000049682CF08003194391600121002280F881
:101610003D1080F83C20BDE81040104670470000A7
:10162000002804BF0120704710B5044690F83D0023
:1016300028B9002084F83C00204600F01FF8022062
:1016400084F83D002068211D02F002F9012084F891
:10165000460084F83E0084F83F0084F8400084F897
:10166000410084F8420084F8430084F8440084F880
:10167000450084F83D00002010BD00000068B0F176
:10168000804F18BF704780B582B00020019043F6AC
:101690004000C4F202000168002241F00101016033
:1016A0000068012100F00100019001981C20FFF763
:1016B000F5FB1C2002B0BDE88040FFF7DDBB000059
:1016C00090F83D1001291CBF01207047022180F8CD
:1016D0003D10006841F2FF72C168C4F200029042FE
:1016E00041F00101C1600DDC40F2FF71C4F2000164
:1016F000884215DCB0F1804F2AD040F20041C4F29C
:10170000000123E040F2FF31C4F20101884213DC02
:1017100041F60001C4F20001884219D0002113E013
:1017200040F60001C4F20001884211D040F60041A9
:10173000C4F200010AE000BF44F20001C4F201015A
:10174000884205D040F20041C4F20101884206D12E
:10175000816801F00701062904BF00207047016875
:1017600041F00101016000207047000090F83C202A
:10177000012A4FF002026CD080B580F83D20D0F8ED
:1017800000C04FF67772DCF8083023EA0202CCF88A
:1017900008200B684F2B29DC1F2B45DD202B46D062
:1017A000302B44D0402B40F0AF80D1F804E0C96822
:1017B000DCF82030DCF8202022F00102CCF82020D8
:1017C000DCF8182022F0F00242EA011123F00A02AC
:1017D00042EA0E02CCF81810CCF82020DCF80810F1
:1017E00041F0470121F0300128E000BF6F2B33DDCD
:1017F000B3F5005F74D0B3F5805F21D0702B40F05B
:101800008380D1E901E3C968DCF8082043EA0E03CC
:1018100022F47F4243EA01211143CCF80810DCF89E
:10182000081041F0770109E00BB1102B6CD1DCF806
:10183000081021F07001194341F00701CCF808109D
:101840000022012180F83D10002180F83C10BDE805
:1018500080401046704700BF502B21D0602B53D1E1
:10186000D1F804E0C968DCF82030DCF8202022F050
:101870001002CCF82020DCF8182022F4704242EA52
:10188000013123F0A00242EA0E12CCF81810CCF875
:101890002020DCF8081041F0670121F01001CDE7AD
:1018A000D1F804E0C968DCF82030DCF8202022F010
:1018B0000102CCF82020DCF8182022F0F00242EAE5
:1018C000011123F00A0242EA0E02CCF81810CCF8FB
:1018D0002020DCF8081041F0570121F02001ADE78D
:1018E000D1E901E3C968DCF8082043EA0E0322F4D9
:1018F0007F4243EA01211143CCF80810DCF80810BC
:1019000041F480419AE700BF01229AE7002804BF12
:10191000012070472DE9F047044690F83D000D4640
:1019200028B9002084F83C00204600F049F8022045
:1019300084F83D00206844F2070281689143816089
:10194000211D01F085FF20684FF6FF7881688269CC
:10195000D0F820C0D5E9003ED5E9026A43EA010982
:10196000AB6922EA080246EA03234FF6FC46B3437A
:10197000D5E9076742EA0A0229691A4342EA0622C0
:1019800042EA01112CF0AA026B6942EA0E0241EA16
:10199000073142EA0312C0F8089081610262012017
:1019A00084F8460084F83E0084F83F0084F8420042
:1019B00084F8430084F83D000020BDE8F087000073
:1019C00080B586B040F600010068C4F20001002234
:1019D00088420592CDE903220292019202D006B01C
:1019E00080BD00BF43F630000092C4F202000369DC
:1019F00043F004030361036903F004030093009BB5
:101A00000092036843F008030360006800F00800D8
:101A1000009000984FF4405001900220CDE902025E
:101A2000CDE9042001F5013001A9FEF73FFF1E209A
:101A300000210022FFF732FA1E20FFF71DFA06B040
:101A400080BD000080B590F83E2090F83F3090F8BF
:101A500042E090F843C004290AD0B9B9012A4FF0F6
:101A6000010208BFBEF1010F34D0104680BD00BF97
:101A7000012B4FF0010208BFBCF1010FF5D102218B
:101A800080F83F1080F8431000681EE0012A4FF0F4
:101A9000010208BF012BE8D1BEF1010FE5D1BCF175
:101AA000010FE2D1022280F83E2080F83F2080F82A
:101AB000422080F8432091B10068016A21F00101C1
:101AC0000162016A41F00101016210216FF0100210
:101AD00009E000BF022180F83E1080F84210006843
:101AE00001216FF00102036A1A400262026A114387
:101AF00001620168002241F001010160104680BDD1
:101B00007047000070B504460068C5680669B107F3
:101B100016D515F0020113D06FF002010161012109
:101B200021778069800703D02046FFF7E9FF05E0B1
:101B3000204600F08FF8204600F0E6F900202077DC
:101B4000700719D515F0040016D020686FF0040155
:101B5000016102212177806910F4407F04D0204682
:101B6000FFF7CEFF06E000BF204600F073F82046E6
:101B700000F0CAF900202077300717D515F00800CB
:101B800014D020686FF00801016104212177C06939
:101B9000800703D02046FFF7B3FF05E0204600F0A2
:101BA00059F8204600F0B0F900202077F00619D54A
:101BB00015F0100016D020686FF0100101610821A7
:101BC0002177C06910F4407F04D02046FFF798FFCA
:101BD00006E000BF204600F03DF8204600F094F9F2
:101BE00000202077F00718BF15F0010002D1300661
:101BF00009D412E020686FF001010161204600F075
:101C00000FFA300609D515F0800006D020686FF075
:101C1000800101612046FFF77BFC700609D515F0B5
:101C2000400006D020686FF040010161204600F0BE
:101C300071FAB00658BF70BD15F0200008D02168B9
:101C40006FF0200220460A61BDE87040FFF762BCD9
:101C500070BD00007047000090F83C30012B04BFBD
:101C6000022070474FEAB202032A00F2FF802DE9FA
:101C7000F043DFE802F003B13F7F00BF036840F2AA
:101C800000461C6A1A6A24F0020422F001021A6259
:101C90001A46D3F804C052F818EF8F6843F48065F1
:101CA000C4F20106B54244EA070405D1CF6824F026
:101CB0000C0427F004073C430F68B54206D1D1E974
:101CC00005582CF440762E4346EA080C2EF0730695
:101CD0003743C3F804C09F614F6809695F631C62A2
:101CE0009F6947F008079F619F6927F004079F617C
:101CF000B1E000BF036840F200481C6A1A6A24F48D
:101D0000007422F480721A621A46D3F804C052F8A2
:101D10001CEF8F6843F48065C4F20108454544EA2E
:101D2000072408D1CF6840F2FF463F0224F4406404
:101D300027EA06063443D1F80090454506D1D1E99B
:101D400005562CF440572E4347EA061C2EF0730725
:101D500047EA0907C3F804C0DF614F680969DF6318
:101D60001C62DF6947F00807DF61DF6927F00407BD
:101D7000DF6170E0036840F20045D3F820C01A6AC2
:101D800043F4806722F480521A621A465C6852F863
:101D90001C8FD1F800E08E68C4F20105AF4204D177
:101DA0004D6924F4804444EA85142CF4005747EA32
:101DB000063728F4E64646EA0E265C60DE614E6889
:101DC00009691E641F62DF6947F40067DF61DF692C
:101DD00027F48067DF613DE0036840F200481C6A39
:101DE0001A6A24F0200422F010021A621A46D3F86C
:101DF00004C052F818EF8F6843F48065C4F20108FC
:101E0000454544EA071407D1CF686FF0400624F037
:101E1000C00406EA07163443D1F80090454506D1C0
:101E2000D1E905562CF440672E4347EA860C2EF480
:101E3000E64747EA0927C3F804C09F614F6809696C
:101E40009F631C629F6947F400679F619F6927F445
:101E500080679F6109021368194311600021BDE882
:101E6000F043002280F83C20084670470121002200
:101E700080F83C2008467047002804BF01207047C6
:101E800010B5044690F83D0028B9002084F83C00C5
:101E9000204600F01FF8022084F83D002068211D34
:101EA00001F0D6FC012084F8460084F83E0084F856
:101EB0003F0084F8400084F8410084F8420084F830
:101EC000430084F8440084F8450084F83D00002075
:101ED00010BD000000680021C4F20101884218BF53
:101EE000704781B00020009043F64400C4F2020025
:101EF000016841F001010160006800F001000090FC
:101F0000009801B07047000070470000C1B104297B
:101F100008D0082914BF41224022825C012A05D042
:101F200016E000BF3F22825C012A11D1022208295B
:101F300010D0042914BF80F8412080F83F200BE026
:101F400090F83E20012A03D1022280F83E2003E0CF
:101F50000120704780F84020006801F01F01012235
:101F6000036A02FA01F123EA01020262026A1143E2
:101F700041F2FF72C4F20002904201620CDC40F2B6
:101F8000FF71C4F20001884214DCB0F1804F37D0F9
:101F900040F2004116E000BF40F2FF31C4F20101FF
:101FA000884215DC41F60001C4F20001884227D0C6
:101FB000002115E040F60001C4F2000188421FD064
:101FC00040F60041C4F20001884219D01FE000BF72
:101FD00044F20001C4F20101884211D040F20041F4
:101FE000C4F20101884212D1416C40F2004340F436
:101FF0008062C4F2010341F400419A42416406D177
:10200000816801F00701062904BF002070470168BC
:1020100041F0010101600020704700000000000055
:1020200040F2F001C2F20001884218BF704710B5BB
:1020300040F23810C2F200000468606AFEF772F9DC
:102040009FED2F0B53EC102BFEF7FDF8FEF78AF9EE
:1020500040F23801C2F2000100EE100A4860002090
:10206000606240F20400C2F2000090ED004A90ED80
:10207000026A91ED042A91ED021A90ED015A34EEB4
:10208000400A9FED214AB5EE406A91ED053A30EEE7
:10209000022AF1EE10FA18BFB0EE424A81ED020AB0
:1020A00081ED044A26EE042A25EE004A30EE410A6C
:1020B00081ED031A34EE022A23EE000A9FED131A73
:1020C00030EE020A9FED122AB4EE410A40F2A80057
:1020D000F1EE10FAC8BFB0EE410AB4EE420AC2F205
:1020E0000000F1EE10FAB8BFB0EE420A006881EDD0
:1020F000060ABCEEC00A80ED100ABDE81040704729
:10210000A4703D0AD7A3E03F000000000000E145B5
:102110000000E1C570470000002804BF012070479F
:1021200010B5044690F8410028B9002084F840001A
:10213000204600F021F8242084F841002068C1687E
:1021400021F40051C160204601F020FC20680169A3
:1021500021F490410161416921F02A014161C16886
:1021600041F40051C16000202021606484F84110D6
:1021700084F84210606310BD80B586B041F2000162
:102180000068C4F20101002288420592CDE90322D1
:102190000292019202D006B080BD00BF43F630002B
:1021A0000092C4F20200436943F0100343614369A3
:1021B00003F010030093009B0092036843F00103B7
:1021C0000360006800F00100009000984FF4C060C8
:1021D00001900220CDE9020203200490072005901F
:1021E00001F5704001A9FEF761FB06B080BD00005B
:1021F0002DE9F04381B0044690F84100202809D130
:1022000000294FF0010018BF002A07D101B0BDE836
:10221000F08300BF022001B0BDE8F08300206064BD
:1022200021201D460E4684F841001746FEF71AFC91
:10223000A784E784A1688146B1F5805F02D1206957
:1022400000285DD037460020E28C2168002A5DD04E
:102250006A1C24D0002D4AD0804600BF08680006C2
:1022600008D4FEF7FFFBA0EB0900A8427AD821684A
:10227000C868F3E717B117F8010B04E038F8020B50
:1022800000276FF35F204860E08C0138E084E08C29
:102290000028E3D13AE000BF0A68120609D40A68B0
:1022A000120606D40A6812065CBF0A685FEA026278
:1022B000F2D51FB117F8012B05E000BF30F8022B53
:1022C00000276FF35F224A60E28C013AE284E28CDD
:1022D000002AE4D11AE000BF30F8022B00276FF388
:1022E0005F224A60E28C013AE284E28C72B10A68B1
:1022F000120635D5002FEFD017F8012BF1E700BFFC
:1023000000273046E28C2168002AA1D108684006E7
:102310001ED42DB3681C14D1086840062AD408685E
:10232000400627D40868400624D4086840064FF0C9
:102330000000F1D50DE000BF2068C16800684006CC
:1023400018D4FEF78FFBA0EB0900A842F4D909E0EE
:102350000020202184F8411001B0BDE8F08300BFC7
:10236000FEF780FB0320202184F8411001B0BDE876
:10237000F08300BF0020202184F8411001B0BDE8A7
:10238000F0830000FEE700002DE9F04383B004462F
:1023900000680F4601680A9D0B9E41F480719946C2
:1023A0009046016020464FF0011100222B46009616
:1023B00000F0ACF850B120680068C00544BF4FF48D
:1023C00000702064032003B0BDE8F083206807F0AC
:1023D000FE0101610221C0F2010120462A46334676
:1023E00000F07AF920B1012003B0BDE8F08300BF0E
:1023F0000020029020683246416902918069294696
:1024000002900298204600F0D3F958B1206C0428BD
:10241000E9D12068016841F400710160012003B036
:10242000BDE8F0832068B9F1010F0AD04FEA182106
:10243000016120462946324600F0BAF90028E5D16C
:1024400020685FFA88F10161002003B0BDE8F083E5
:1024500070B50368044653F8140F400711D40E46B4
:10246000481C29D086BB00BF1868400527D4FEF75A
:10247000F9FA236853F8140F400737D51868400756
:10248000F2D5002070BD00BF18684007F9D4186865
:10249000400514D418684007F3D4186840050ED4DA
:1024A00018684007EDD41868400508D4186840073C
:1024B0004FF0000048BF70BD18684005E4D56FF4C8
:1024C00080601860042012E0154603E053F8140FF2
:1024D0004007D6D418684005F1D4FEF7C3FA401B74
:1024E0002368B042F2D958694007EFD42020002178
:1024F0002022216384F83D2084F83E10226C104392
:102500002064012084F83C1070BD00002DE9F041EA
:10251000054600681E46144601F47F0201338FB25F
:1025200042D0DDF81880B2F5803F40F087804069E6
:102530003840C01BB0FA80F04009844240F0C880A7
:102540004EB924E040693840C01BB0FA80F0400921
:10255000844240F0BD80FEF785FAA0EB08012868B0
:10256000B142EFD941693940C91BB1FA81F149093A
:102570008C42E7D19BE000BF40693840C01BB0FAF5
:1025800080F0400984424FF0000040F0A280FEF746
:1025900069FA286841693940C91BB1FA81F14909D2
:1025A0008C42E9D183E000BFB2F5803F24D100BF67
:1025B00041693940C91BB1FA81F149098C4240F0A7
:1025C000878041693940C91BB1FA81F149098C42C0
:1025D00040F07E8041693940C91BB1FA81F1490957
:1025E0008C4275D141693940C91BB1FA81F1490961
:1025F0008C42DDD06CE000BF81693940C91BB1FA63
:1026000081F149098C4263D181693940C91BB1FA12
:1026100081F149098C425BD181693940C91BB1FA0A
:1026200081F149098C4253D181693940C91BB1FA02
:1026300081F149098C42DFD04AE000BF806938400F
:10264000C01BB0FA80F04009844241D146B923E072
:1026500080693840C01BB0FA80F04009844237D10D
:10266000FEF700FAA0EB08012868B142F0D98169B1
:102670003940C91BB1FA81F149098C42E8D116E011
:1026800080693840C01BB0FA80F0400984424FF0A6
:10269000000018BFBDE8F081FEF7E4F92868816901
:1026A0003940C91BB1FA81F149098C42E8D10020B7
:1026B0002021286385F83D1085F83E00296C41F003
:1026C0002001296485F83C000120BDE8F08100BFAD
:1026D0000020BDE8F0810000F0B581B0044600683C
:1026E0001D4643698FB203EA0701B94202D10020B7
:1026F00001B0F0BD4169164601323CD0490512D403
:102700007EB300BFFEF7AEF9411B2068B14203D98A
:1027100041693940B9422BD141693940B942E6D0CB
:1027200041694905EED5016841F4007101606FF41B
:1027300080614161042000212022216384F83D2032
:1027400084F83E10226C1043206484F83C10012071
:1027500001B0F0BD41693940B942C8D0416949056D
:10276000E1D4FEF77FF9206841693940B942F1D0E0
:102770002020E0E741694905D5D441693940B94293
:10278000B5D041694905CED441693940B942AED08E
:1027900041694905C7D441693940B942A7D0416967
:1027A0004905C0D441693940B942E3D19FE70000EF
:1027B00070B50368044653F8140F000611D40E4692
:1027C000481C29D086BB00BF1868400527D4FEF7F7
:1027D00049F9236853F8140F000637D51868000626
:1027E000F2D5002070BD00BF18680006F9D4186843
:1027F000400514D418680006F3D4186840050ED4B8
:1028000018680006EDD41868400508D4186800065A
:102810004FF0000048BF70BD18684005E4D56FF464
:1028200080601860042012E0154603E053F8140F8E
:102830000006D6D418684005F1D4FEF713F9401B02
:102840002368B042F2D958690006EFD42020002155
:102850002022216384F83D2084F83E10226C10432E
:102860002064012084F83C1070BD00002DE9F04187
:1028700086B0002743F630000597CDE90377CDE910
:1028800001770097C4F20200016841F2000841F0AC
:10289000200101600168C4F2020801F020010091EA
:1028A00000990097016808F5806541F0800101609A
:1028B0000168002201F080010091009900970168F1
:1028C0004FF4806641F001010160016801F00101EF
:1028D000009100990097016841F0100101600168C2
:1028E00001F01001009100990097016841F0080182
:1028F0000160016801F008010091009900970168EA
:1029000041F00201016000684FF4806100F00200B4
:10291000009000982846FEF79FF840464FF48051FB
:102920000022FEF799F840464FF40051012201249D
:10293000FEF792F8CDE9016401AE28463146CDE9B3
:102940000377FDF7B3FF4FF48810CDE90207A8F530
:10295000805031460194FDF7A9FF4FF4405001A982
:1029600091C1404631460497FDF7A0FF06200121A2
:102970000022FEF793FA0620FEF77EFA06B0BDE8C5
:10298000F081000080B540F2540045F20041C2F2EF
:102990000000C4F2000148F2A06200234FF4804C12
:1029A000C0F2010280E80E00C0E9033CC0E9053333
:1029B000C0E90733FEF75CF8002808BF80BDBDE81A
:1029C0008040FDF72FBF000070B598B0002540F2A1
:1029D000A800C4F201050021C2F2000041F61F4226
:1029E0001191CDE90F11CDE90D11CDE90B11CDE913
:1029F0000911CDE90711CDE90511CDE90311CDE9A3
:102A00000111C0E90051C0E90212C0E9041181615D
:102A1000FFF732FA002818BFFDF704FF40F2A800C4
:102A2000C2F2000010A9FEF79DFD002818BFFDF7B7
:102A3000F9FE602009900020CDE90A00CDE90C00E4
:102A4000CDE90E0040F2A800C2F2000009A9002260
:102A5000FFF702F9002818BFFDF7E4FE40F2A800D6
:102A6000C2F2000009A90C22FFF7F6F8002818BFEF
:102A7000FDF7D8FE40F2A8044FF40050C2F2000463
:102A80000026069001A920460596CDE90366CDE90A
:102A900001660896FEF740FD002818BFFDF7C2FE4C
:102AA00020681796A842CDE915661496139601D0B2
:102AB00018B070BD002043F630011290C4F202013C
:102AC0000A6842F010020A60096801F010011291D0
:102AD00012994FF4844113910221CDE914101690FC
:102AE0000120179005F5883013A9FDF7DFFE18B017
:102AF00070BD000080B586B040F2F0000021C2F247
:102B000000004FF0630C0591CDE90311CDE90011F0
:102B10004FF0804241F61F43C0E9021C0161802151
:102B2000C0E900238161FEF77BFD002818BFFDF797
:102B300079FE4FF48050029040F2F000C2F20000A3
:102B400002A9FEF713FE002818BFFDF76BFE40F246
:102B5000F000C2F200006946FEF704FD002818BF2D
:102B6000FDF760FE06B080BD80B58CB040F2381035
:102B700040F600020021C2F20000C4F200024FF64B
:102B8000FF73C0E900210122CDE90011C0E9021361
:102B900001618161CDE90321CDE90521CDE907116D
:102BA000CDE909210B9103A9FEF7B0FE002818BF5B
:102BB000FDF738FE40F23810C2F200006946FEF719
:102BC000D1FC002818BFFDF72DFE0CB080BD000021
:102BD00080B540F2801041F20001C2F20000C4F260
:102BE000010100234FF00C0C4FF4E13280E80E009D
:102BF000C0E90333C0E905C3C361FFF78DFA0028BC
:102C000008BF80BDBDE88040FDF70CBEFEE70000B8
:102C1000FEE700002DE9F04F85B040F25404002596
:102C20004FF480760127C2F200040DF1120B0DF172
:102C300013084FF0000900BF49F0B0008DF81000F4
:102C400004A8CDE90007204678210022012302963E
:102C5000FDF7C0FF0DF11100CDE9000720467821F6
:102C6000002201238DF811500296FDF7B3FF1020CA
:102C70008DF812002046782100220123CDE900B70B
:102C80000296FDF7A7FF4FF0000A00BF204678210B
:102C9000402201238DF81350CDE900870296FDF7FD
:102CA00099FF0AF101004FFA80FABAF1FF3FEDDC1B
:102CB000B9F1070F09F10109BED305B0BDE8F08FE6
:102CC0002DE9F04184B0C820FDF7B0FD40F21806B0
:102CD000C2F20006307840F25404C2F200048DF8CB
:102CE0000F004FF4807801270DF10F052046782161
:102CF00000220123CDE90057CDF80880FDF76AFFD7
:102D0000707878218DF80F00204600220123CDE94C
:102D10000057CDF80880FDF75DFFB07878218DF879
:102D20000F00204600220123CDE90057CDF808808E
:102D3000FDF750FFF07878218DF80F002046002233
:102D40000123CDE90057CDF80880FDF743FF307926
:102D500078218DF80F00204600220123CDE900578D
:102D6000CDF80880FDF736FF707978218DF80F00D7
:102D7000204600220123CDE90057CDF80880FDF759
:102D800029FFB07978218DF80F0020460022012319
:102D9000CDE90057CDF80880FDF71CFFF0797821C8
:102DA0008DF80F00204600220123CDE90057CDF811
:102DB0000880FDF70FFF307A78218DF80F0020464C
:102DC00000220123CDE90057CDF80880FDF702FF6E
:102DD000707A78218DF80F00204600220123CDE97A
:102DE0000057CDF80880FDF7F5FEB07A78218DF810
:102DF0000F00204600220123CDE90057CDF80880BE
:102E0000FDF7E8FEF07A78218DF80F0020460022C9
:102E10000123CDE90057CDF80880FDF7DBFE307BBC
:102E200078218DF80F00204600220123CDE90057BC
:102E3000CDF80880FDF7CEFE707B78218DF80F006D
:102E4000204600220123CDE90057CDF80880FDF788
:102E5000C1FEB07B78218DF80F00204600220123AF
:102E6000CDE90057CDF80880FDF7B4FEF07B78215E
:102E70008DF80F00204600220123CDE90057CDF840
:102E80000880FDF7A7FE307C78218DF80F002046E2
:102E900000220123CDE90057CDF80880FDF79AFE06
:102EA000707C78218DF80F00204600220123CDE9A7
:102EB0000057CDF80880FDF78DFEB07C78218DF8A5
:102EC0000F00204600220123CDE90057CDF80880ED
:102ED000FDF780FEF07C78218DF80F00204600225F
:102EE0000123CDE90057CDF80880FDF773FE307D52
:102EF00078218DF80F00204600220123CDE90057EC
:102F0000CDF80880FDF766FE707D78218DF80F0002
:102F1000204600220123CDE90057CDF80880FDF7B7
:102F200059FEB07D78218DF80F0020460022012344
:102F3000CDE90057CDF80880FDF74CFE04B0BDE8A0
:102F4000F08100002DE9F04F8BB047B2C0F3C01004
:102F5000DDF85090203A01EB400427EAE771102792
:102F6000A4F1500047EA111601F00F05102BD7B25B
:102F700040F0B280049440F254048DF81D004FF0EC
:102F800001080DF11D00C2F200044FF4807BCDE971
:102F900000082046782100220123CDF808B0FDF773
:102FA00019FE0DF11E00CDE900082046782100220F
:102FB000012305968DF81E60CDF808B0FDF70AFED6
:102FC0000DF11F00CDE900082046782100220123E1
:102FD00006958DF81F50CDF808B0FDF7FBFD44F2C3
:102FE000BE763D01C0F60006705DB9F1000F039595
:102FF00000F0048140F25404C043C2F200048DF892
:1030000020000DF1200A2046782140220123CDE93D
:1030100000A8CDF808B0FDF7DDFD77197878BD7808
:10302000C04397F803903E798DF820002046782120
:1030300040220123CDE900A8CDF808B0FDF7CAFD74
:10304000E8438DF820002046782140220123CDE975
:1030500000A8CDF808B0FDF7BDFD6FEA09008DF8B6
:1030600020002046782140220123CDE900A8CDF898
:1030700008B0FDF7AFFDF0438DF820002046782121
:1030800040220123CDE900A8CDF808B0FDF7A2FD4C
:1030900078797821C0438DF8200020464022012312
:1030A000CDE900A8CDF808B0FDF794FDB8797821F6
:1030B000C0438DF82000204640220123CDE900A81E
:1030C000CDF808B0FDF786FDF879CDE900A8C0433A
:1030D0008DF820002046F8E040F254048DF82700D7
:1030E0004FF0010A0DF12700C2F200044FF480787E
:1030F000CDE9000A2046782100220123CDF808807E
:10310000FDF768FD0AA8CDE9000A204678210022D3
:1031100001238DF82860CDF80880FDF75BFD0DF1E7
:103120002900CDE9000A20467821002201238DF8EC
:103130002950CDF80880FDF74DFD44F2965607EB77
:103140004705C0F6000616F81500B9F1000F00F0AB
:10315000718140F25404C043C2F200048DF82A0089
:103160000DF12A0B2046782140220123CDE900BA37
:10317000CDF80880FDF72EFD06EB45056878AF78A1
:10318000C043EE7895F804908DF82A002046782107
:1031900040220123CDE900BACDF80880FDF71AFDE1
:1031A000F8438DF82A002046782140220123CDE9FA
:1031B00000BACDF80880FDF70DFDF0438DF82A0028
:1031C0002046782140220123CDE900BACDF80880BD
:1031D000FDF700FD6FEA09008DF82A0020467821EE
:1031E00040220123CDE900BACDF80880FDF7F2FCBA
:1031F0006879C0438DF82A00CEE100BF40F254093F
:10320000C2F200098DF821000DF1210A484678210B
:1032100040220123CDE900A8CDF808B0FDF7DAFC83
:1032200077197878BD78FC783E798DF8210048468A
:10323000782140220123CDE900A8CDF808B0FDF7A0
:10324000C9FC48467821402201238DF82150CDE960
:1032500000A8CDF808B0FDF7BDFC48467821402213
:1032600001238DF82140CDE900A8CDF808B0FDF785
:10327000B1FC48467821402201238DF82160CDE938
:1032800000A8CDF808B0FDF7A5FC787978218DF875
:103290002100484640220123CDE900A8CDF808B01E
:1032A000FDF798FCB87978218DF821004846402236
:1032B0000123CDE900A8CDF808B0FDF78BFCF87923
:1032C000CDE900A88DF8210048467821402201234D
:1032D000CDF808B0FDF77EFC049840F254044F3856
:1032E0008DF822004FF0010A0DF12200C2F2000415
:1032F0004FF48078CDE9000A20467821002201238E
:10330000CDF80880FDF766FC059878218DF823003C
:103310000DF12300CDE9000A204600220123CDF85B
:103320000880FDF757FC069878218DF8240009A83D
:10333000CDE9000A204600220123CDF80880FDF7E0
:1033400049FC039844F2BE71C0F600010F181499AD
:10335000387A002900F0BC8040F25404C043C2F225
:1033600000048DF825000DF1250B20467821402220
:103370000123CDE900BACDF80880FDF72BFC787A5F
:10338000BD7AC043FE7A97F80C908DF82500204650
:10339000782140220123CDE900BACDF80880FDF75D
:1033A00019FCE8438DF825002046782140220123AE
:1033B000CDE900BACDF80880FDF70CFCF0438DF89C
:1033C00025002046782140220123CDE900BACDF81E
:1033D0000880FDF7FFFB6FEA09008DF82500204605
:1033E000782140220123CDE900BACDF80880FDF70D
:1033F000F1FB787B7821C0438DF8250020464022E0
:103400000123CDE900BACDF80880FDF7E3FBB87BD6
:103410007821C0438DF82500204640220123CDE9C4
:1034200000BACDF80880FDF7D5FBF87BC0438DF8D6
:103430002500B1E040F25404C2F200048DF82B00E4
:103440000DF12B0B2046782140220123CDE900BA53
:10345000CDF80880FDF7BEFB06EB45056878AE7831
:10346000EF7895F804908DF82B00204678214022C3
:103470000123CDE900BACDF80880FDF7ABFB20466B
:103480007821402201238DF82B60CDE900BACDF8D8
:103490000880FDF79FFB20467821402201238DF80C
:1034A0002B70CDE900BACDF80880FDF793FB2046DC
:1034B0007821402201238DF82B90CDE900BACDF878
:1034C0000880FDF787FB68798DF82B0064E000BF6A
:1034D00040F25404C2F200048DF826000DF1260BD0
:1034E0002046782140220123CDE900BACDF808809A
:1034F000FDF770FB787ABE7AFD7A97F80C908DF81C
:1035000026002046782140220123CDE900BACDF8DB
:103510000880FDF75FFB20467821402201238DF8CB
:103520002660CDE900BACDF80880FDF753FB2046B0
:103530007821402201238DF82650CDE900BACDF83C
:103540000880FDF747FB20467821402201238DF8B3
:103550002690CDE900BACDF80880FDF73BFB787BDB
:1035600078218DF82600204640220123CDE900BABB
:10357000CDF80880FDF72EFBB87B78218DF826006A
:10358000204640220123CDE900BACDF80880FDF79E
:1035900021FBF87B8DF8260020467821402201236C
:1035A000CDE900BACDF80880FDF714FB0BB0BDE8FB
:1035B000F08F0000002B08BF70472DE9F04F85B059
:1035C0000446DDE90E079B4640080490981E164607
:1035D0000D46591E0290002042F210784FF0000A6A
:1035E000039110E04FF0010A049A41F0300102FB10
:1035F00000400E9BC0B2CAB229460097FFF7A2FC5A
:10360000D94548465CD000F101095FFA89F18B4544
:1036100002D1012130E000BF029AC143121AD2B296
:10362000BE46A4462C463546032A0BEB010201D2C6
:10363000012109E002F0FC03002601210436F7B263
:103640009F4201FB08F1F9D112F003022E462546F4
:103650006446774610D0012A04D101EB810149006C
:103660000AE000BF4FF47A734B43022A4FF0640222
:1036700008BF01FB02F31946B6FBF1F14CF6CD424F
:10368000CCF6CC42A1FB0223DA0802EB8202BAF1AB
:10369000000FA1EB4201A7D1039A8242A4DD0029C9
:1036A000A0D104990E9B01FB00402946C0B2202204
:1036B0000097FFF747FC4FF0000AD9454846A2D1D2
:1036C00005B0BDE8F04F70472DE9F04782B0924653
:1036D0001278002A4BD0DDF8288099460D46064620
:1036E00008270C2B4FF0000408BF062716D100BF97
:1036F000F0B2E9B2D2B20C23CDF80080FFF722FC81
:103700003E44F0B201347A28E0B288BF01351AF89D
:10371000002088BF0026002AEAD128E0B9F1100F66
:1037200016D100BFF0B2E9B2D2B21023CDF80080BA
:10373000FFF708FC3E44F0B201347828E0B288BFBD
:1037400001351AF8002088BF0026002AEAD10EE0D1
:10375000F0B2D2B229464B46CDF80080FFF7F2FB1B
:103760000134E0B21AF800203E44002AF0D102B041
:10377000BDE8F0877047000070470000FDF712BBFE
:1037800070B592B006AC20463021FCF751FD002503
:1037900043F640000595CDE90355CDE90155009567
:1037A000C4F202000168022641F080510160006805
:1037B00000F080500090009847F200000095C4F29D
:1037C0000000016841F4804101600068482100F474
:1037D000804000900098012006904FF480300790C0
:1037E0004FF480000D9004200E90119020460C960E
:1037F000CDE90F16FDF7A0FC10B172B6FEE700BFD1
:103800000F20CDE901064FF48050CDE9040001A856
:1038100002210395FDF77EFB10B172B6FEE700BFF3
:1038200012B070BD4EF68850CEF20000016841F42F
:10383000700101607047000040F2F000C2F2000029
:10384000FEF760B940F23810C2F20000FEF75AB934
:10385000B0B540F6FF3E0568C4F2000E40F2004CE1
:103860007045C4F2010C25DCB0F1804F2FD040F23E
:103870000043C4F20003984229D040F60003C4F28A
:103880000003984223D041F6FF73C4F2000398422C
:1038900028DC70453ADCB0F1804F5BD040F2004349
:1038A000C4F20003984255D040F60003C4F200036E
:1038B0004EE000BF40F60043C4F20003984206D039
:1038C000604504D00023C4F201039842DBD14B6869
:1038D00025F0700243EA020541F6FF73C4F20003CB
:1038E0009842D6DD43F6FF73C4F2010398421FDC11
:1038F00042F20003C4F2000398422BD00023C4F22A
:103900000103984226D0604524D028E040F60043C9
:10391000C4F2000398421DD041F60003C4F2000334
:10392000984217D041F60043C4F2000310E000BFF4
:1039300044F20003C4F2010398420BD044F60003A2
:10394000C4F20103984205D044F20043C4F20103DB
:10395000984204D1CB6825F4407243EA02050A6814
:103960008C684B69C46240F480648262644504BF21
:1039700009690163026825F0800142F004021943DD
:103980000260012242610160B0BD0000B0B5044692
:10399000006804F108030ECB0569194325F440556E
:1039A0002A4302616269E3691143C268194349F21B
:1039B0000C639A431143C1604169A26921F44071CB
:1039C00041F20043114340F48062C4F201039A4281
:1039D000416103D1FDF764FB02E000BFFDF74CFB42
:1039E000E1694FF69C7563681922C0F6FF75B1F561
:1039F000004FA0FB02011FD15A00DB0FFCF7E0FBD8
:103A000048F21F51C5F2EB11A0FB01235A0905F141
:103A1000805302FB0300322303EBC000A0FB010133
:103A20004FF4F87000EA111000EB0210C1F34211DC
:103A3000084421688860B0BD9A009B0FFCF7C0FB6A
:103A400048F21F51C5F2EB11A0FB01235A0902FBFA
:103A50000500322303EB0010A0FB0101F02000EA77
:103A6000511000EB0210C1F3431108442168886033
:103A7000B0BD0000FEE7000080B582B0019040F2CA
:103A80008010C2F2000001A901224FF6FF73FEF779
:103A9000AFFB019802B080BD84B0FDF791F9FFF74C
:103AA0006FFEFEF7E3FEFFF793F8FEF78DFFFFF7DB
:103AB00021F8FFF759F8FEF765FF40F2A800C2F2BF
:103AC00000000C21FEF722FA40F23814C2F2000482
:103AD000204600214FF00009FDF7B4FF20460421E5
:103AE000FDF7B0FF40F2F000C2F20000FDF7E8FD84
:103AF000FFF7E6F8FFF78EF8012657A20020002115
:103B0000102300961024FFF7DFFD55A200200321AB
:103B100010230096FFF7D8FD53A2002006211023A2
:103B20000096FFF7D1FD44F69E55C0F600056420CF
:103B300000212A4610230096FFF7C6FD64200321CA
:103B40002A4610230096FFF7BFFD49A264200621F4
:103B500010230096FFF7B8FD40F2380740F2040A40
:103B60009FED448A9FED449A9FED44AA40F2000BDA
:103B7000C2F20007C2F2000A0FF20418B3EE0EBA46
:103B8000C4F2201BB2EE04CA50E000BF0020C4F211
:103B9000F010B0EE4B0ACAF80000BCEEC00A10EEFE
:103BA000102A3C2000210323CDE90049FFF702FD44
:103BB00097ED010A3C20BCEEC00A10EE102A03214A
:103BC0000323CDE90049FFF7F5FC97ED060A3C20F9
:103BD00080EE090A06210323CDE9004920EE0A0AF6
:103BE000BCEEC00A10EE102AFFF7E4FCDAF8000081
:103BF000FCF7A5FB054678680E46FCF7A0FB97EDA1
:103C0000060A41EC1D0B80EE090A20EE0A0A10EEAE
:103C1000100AFCF794FB41EC100B40462A46334651
:103C20008DED00DB8DED020B00F030F8387858B1E7
:103C30000128ABD0032806BFCAF800B0B0EE4C0A8A
:103C40009AED000AA9E700BF0020C4F24820CAF894
:103C50000000B0EE480AA0E75461726765743A004C
:103C600041637475616C3A004F75743A000000004E
:103C700025000000000048420000E1450000C84265
:103C800025662C25662C25660D0A00000FB4054B11
:103C900010B503A9044A029800F0DAF810BC5DF8E8
:103CA00014FB0000793A00080000002002E008C878
:103CB000121F08C1002AFAD170477047002001E0A6
:103CC00001C1121F002AFBD1704700002DE9FF5FE0
:103CD00082B00021DDE90430020DDDF840B003437D
:103CE00018D044F61050A2F2FF3242431514119836
:103CF00001281FD0A5EB0B00401C5FEA000A4FF023
:103D000000064E4FDFF83891B046504615D5CAF13F
:103D1000000413E0119801244AA3012801D16FEA9D
:103D20000B010298119AC0E90031C0E9024206B0C5
:103D3000BDE8F09FCBF10000DFE704460021404AD8
:103D4000491842EB0450CDE9001012E0E00707D01B
:103D500032463B4640464946FCF790FC8046894641
:103D600032463B4610461946FCF788FC06460F468D
:103D70006410002CEAD1DDE90401DDE90023BAF189
:103D8000000F06DAFCF77AFC42464B46FCF776FC5D
:103D900005E0FCF758FA42464B46FCF754FA044655
:103DA0000E460022284BFCF7F3FC03D84FF0FF30FF
:103DB000014607E00022254B20463146FCF7B7FBC1
:103DC000FCF7CEFC102409E0002C0ADB0A220023B9
:103DD000FCF7F6F9039B30321A55641E50EA0102D3
:103DE000F2D1641C039AC4F111031444119A012AFC
:103DF00003D0012208430DD10AE0084304D000207B
:103E00004FF0110B119072E7A3EB0B056D1E0DE047
:103E10005B4504DD4FF0000205F1010504E003DA23
:103E20004FF00002A5F10105002AECD0029811998B
:103E3000C0E90231C0E9004579E700000000144004
:103E40000000F03F300000000000F0430000E03FC1
:103E50002DE9FF4F95B09B468946064600250FE2A7
:103E6000252877D100242746F84A0121059400E04F
:103E7000044316F8013F203B01FA03F01042F7D14A
:103E800030782A2811D06FF02F033078A0F130025B
:103E9000092A16D8059A44F0020402EB820203EBC9
:103EA00042021044761C0590EFE759F8042B059266
:103EB000002A03DA504244F40054059044F002040E
:103EC000761C30782E2816D116F8010F44F0040421
:103ED0002A280DD06FF02F023078A0F13003092B83
:103EE00009D807EB870302EB4303C718761CF3E7F7
:103EF00059F8047B761C30786C280FD006DC4C28EF
:103F000017D068280DD06A2814D104E0742810D086
:103F10007A280FD10DE044F400140AE044F4801430
:103F200001E044F440147278824202D104F5801416
:103F3000761C761C307866280BD013DC582877D096
:103F400009DC002875D04528F6D04628F4D047284B
:103F50001AD19DE118E0632835D0642879D065280E
:103F600012D195E1702873D008DC6728F1D0692858
:103F70006FD06E280DD06F2806D1B5E073282CD0F5
:103F8000752875D0782874D05A46179990476D1CBB
:103F900075E1C4F30250022809D003280DD0D9F8E6
:103FA000001004280DD00D6009F1040967E1D9F86B
:103FB0000010EA17C1E90052F6E7D9F800100D80A9
:103FC000F2E70D70F0E719F8041B8DF800100020DF
:103FD0008DF80100EA46012003E059F804AB4FF0E8
:103FE000FF3061074FF0000102D40DE008F101013C
:103FF0008846B9420FDA8045F8DB1AF80810002924
:10400000F4D108E008F1010188468142FADB1AF890
:1040100008100029F6D105985B46A0EB0807214659
:104020003846179A00F094FA284400EB080507E098
:104030004DE029E10DE01AF8010B5A461799904717
:10404000B8F10108F7D25B4621463846179A13E1CA
:1040500042E00A220092C4F302524FF0000A022A00
:1040600008D059F804CB032A4FEAEC710AD00DE0CE
:1040700029E02AE009F1070121F00702F2E802C174
:10408000914609E00FFA8CFC4FEAEC71042A03D147
:104090004FFA8CFC4FEAEC71002907DA0A4600213E
:1040A000DCF1000C61EB02012D2202E0220504D5B7
:1040B0002B228DF80420012203E0E20701D0202208
:1040C000F7E7904659E00A2102E010220DE01021A6
:1040D0004FF0000A00910BE010224FF0000A44F06C
:1040E00004040827009203E008224FF0000A00921F
:1040F000C4F30252022A05D059F804CB0021032A46
:1041000008D009E009F1070121F00702F2E802C135
:10411000914605E01FFA8CFC042A01D10CF0FF0C3B
:104120004FF00008220728D5702806D0009B83F0A6
:10413000100353EA0A0305D00EE040228DF8042054
:10414000012208E05CEA010206D030228DF804204A
:104150008DF8050002229046009B83F0080353EA85
:104160000A030AD15CEA010201D1620705D53022B7
:104170008DF804204FF001087F1E582804D034A089
:1041800003900EA802900DE036A0F9E75346604672
:10419000009AFCF715F884460398825C0298401E4A
:1041A000029002705CEA0100F0D1029806A9081A98
:1041B00000F1200A600702D524F4803400E00127D2
:1041C000574502DDA7EB0A0000E0002000EB0A01E2
:1041D000009005984144401A0590E00306D45B46E0
:1041E0002146179A059800F0B3F90544002706E028
:1041F00001A85A46C05D179990476D1C7F1C474522
:10420000F6DBE0030CD55B462146179A059800F0D3
:104210009FF9054404E030205A46179990476D1CD9
:104220000099481E00900029F5DC08E002980299E8
:104230005A460078491C0291179990476D1CBAF1B3
:104240000001AAF1010AF1DC65E100000928010082
:1042500030313233343536373839616263646566FC
:1042600000000000303132333435363738394142BE
:10427000434445460000000000F058F90544761C10
:10428000307800287FF4ECAD19B02846BDE8F08FF7
:10429000620700D4062709F1070222F0070CFCE8A8
:1042A0000223E14603F000485FEA080C02D00FF257
:1042B000702C0DE05FEA045C02D50FF2682C07E079
:1042C0005FEAC47C02D00FF2602C01E0AFF2700C08
:1042D0004FF0FF3823F00043CDF850C065280CD0D4
:1042E00006DC452809D046281DD047283DD13DE0B1
:1042F000662818D067287ED138E00021112F01DB15
:10430000112000E0781CCDE9000106A90EA8FFF7F6
:10431000DDFCDDE90F010E9A03910021009207F107
:10432000010A04914DE04FF000400097CDE90110E3
:1043300006A90EA8FFF7CAFCDDE90F0203920E9B47
:1043400011990022DDF80CA00093049211B9791C98
:1043500000EB010AB7EB0A0004D4C0F1FF3007F10B
:10436000010A0490AAEB0700019044E0012F00DA53
:1043700001270021112F01DD112000E03846CDE991
:10438000000106A90EA8FFF7A1FCDDE90F010E9AB6
:104390000391002104910092BA4621070CD403999D
:1043A000514500DA8A46BAF1010F05DD009AAAF1FB
:1043B0000101515C302908D0B84202DA10F1040F33
:1043C00006DA0121CDE9011015E0AAF10101E9E7C2
:1043D000002805DC049901440491AAEB000102E0E5
:1043E000411C514500DD8A460499401A401C019049
:1043F0004FF000400290200704D40198504501DBA3
:10440000CDF8048000208DF84F0002980DF14F0781
:10441000B0F1004F25D02B200E9002984FF00208EB
:1044200000280CDA404202902D200E9007E00A216D
:104430000298FBF7B3FF3031029007F8011DB8F185
:104440000001A8F10108F2DC02980028EFD1791EE2
:104450000E980870307800F0200040F0450007F812
:10446000020D12A8C01B00F107081498007800B1D3
:10447000012000EB0A01019801EBE071059841442D
:10448000401A401E0590E00306D45B462146179A69
:10449000059800F05DF805441498007818B15A4664
:1044A000179990476D1CE00324D55B462146179A67
:1044B000059800F04DF805441CE00498002807DB3F
:1044C000DDE90301884203DD0098405C179901E0B3
:1044D000179930205A469047049805F10105401C71
:1044E00004900198401E019004D12E205A4617993D
:1044F00090476D1CBAF10001AAF1010ADDDC05E06C
:1045000017F8010B5A46179990476D1CB8F1000136
:10451000A8F10108F4DC5B462146179A0598ABE642
:104520002D0000002B000000200000002DE9F041CC
:10453000044600251E461746880404D405E0394683
:104540002020B0476D1C641EF9D52846BDE8F081D7
:104550002DE9F041044600251E469046C80301D5CA
:10456000302700E02027880404D505E0414638467E
:10457000B0476D1C641EF9D52846BDE8F0810000E7
:104580000000000000000102030406070809000003
:104590000000010203040000000000000000002FE2
:1045A000000000000700070000147F147F1400249F
:1045B0002A7F2A12006264081323003649552250CC
:1045C00000000503000000001C2241000000412201
:1045D0001C000014083E08140008083E08080000EB
:1045E00000A06000000808080808000060600000E3
:1045F000002010080402003E5149453E0000427F61
:104600004000004261514946002141454B310018AC
:1046100014127F10002745454539003C4A4949306E
:104620000001710905030036494949360006494928
:10463000291E000036360000000056360000000833
:104640001422410000141414141400004122140810
:1046500000020151090600324959513E007C1211F5
:10466000127C007F49494936003E41414122007F8A
:104670004141221C007F49494941007F0909090144
:10468000003E4149497A007F0808087F0000417FC9
:104690004100002040413F01007F08142241007F7B
:1046A00040404040007F020C027F007F0408107FE2
:1046B000003E4141413E007F09090906003E41514B
:1046C000215E007F09192946004649494931000108
:1046D000017F0101003F4040403F001F2040201F5C
:1046E000003F4038403F006314081463000708701F
:1046F000080700615149454300007F4141000055D2
:104700002A552A55000041417F000004020102049D
:10471000004040404040000001020400002054548A
:104720005478007F484444380038444444200038DA
:104730004444487F00385454541800087E0901024C
:104740000018A4A4A47C007F080404780000447D21
:104750004000004080847D00007F1028440000005D
:10476000417F4000007C04180478007C0804047831
:1047700000384444443800FC24242418001824241D
:1047800018FC007C08040408004854545420000419
:104790003F444020003C4040207C001C2040201C26
:1047A000003C4030403C004428102844001CA0A09D
:1047B000A07C004464544C441414141414140000D9
:1047C00000000000000000000000000000000000E9
:1047D00000F800000000000000333000000000106E
:1047E0000C06100C0600000000000000000040C095
:1047F0007840C0784000043F04043F040400007087
:1048000088FC08300000001820FF211E0000F0087E
:10481000F000E018000000211C031E211E0000F023
:104820000888700000001E2123241927211010166B
:104830000E0000000000000000000000000000006A
:1048400000E01804020000000007182040000002E9
:104850000418E0000000004020180700000040405D
:1048600080F0804040000202010F010202000000BF
:1048700000F0000000000101011F01010100000023
:1048800000000000000080B0700000000000000088
:104890000000000000000001010101010101000011
:1048A00000000000000000303000000000000000A8
:1048B000000080601804006018060100000000E09D
:1048C00010080810E000000F102020100F0000104A
:1048D00010F8000000000020203F202000000070A1
:1048E0000808088870000030282422213000003099
:1048F0000888884830000018202020110E00000091
:10490000C02010F8000000070424243F240000F811
:104910000888880808000019212020110E0000E0F6
:10492000108888180000000F112020110E00003898
:104930000808C83808000000003F000000000070B0
:10494000880808887000001C222121221C0000E039
:1049500010080810E0000000312222110F000000B2
:1049600000C0C00000000000003030000000000067
:1049700000800000000000008060000000000000D7
:104980008040201008000001020408102000404070
:1049900040404040400004040404040404000008B3
:1049A0001020408000000020100804020100007068
:1049B00048080808F0000000003036010000C03050
:1049C000C828E810E0000718272423140B00000073
:1049D000C038E0000000203C23020227382008F8FD
:1049E000888888700000203F202020110E00C030F1
:1049F000080808083800071820202010080008F8C8
:104A000008080810E000203F202020100F0008F8C0
:104A10008888E8081000203F20202320180008F88C
:104A20008888E8081000203F200003000000C03004
:104A300008080838000007182020221E020008F885
:104A400008000008F808203F210101213F2000084C
:104A500008F8080800000020203F20200000000087
:104A60000808F8080800C08080807F00000008F86F
:104A700088C028180800203F20012638200008F8A8
:104A8000080000000000203F20202020300008F80F
:104A9000F800F8F80800203F003F003F200008F829
:104AA00030C00008F808203F200007183F00E01041
:104AB00008080810E0000F10202020100F0008F850
:104AC00008080808F000203F210101010000E01063
:104AD00008080810E0000F18242438504F0008F888
:104AE000888888887000203F2000030C30200070E8
:104AF0008808080838000038202121221C001808E6
:104B000008F8080818000000203F2000000008F8FE
:104B100008000008F808001F202020201F00087847
:104B2000880000C83808000007380E010000F808A7
:104B300000F80008F800033C0700073C03000818D1
:104B400068808068180820302C03032C3020083837
:104B5000C800C83808000000203F200000001008EE
:104B60000808C83808002038262120201800000036
:104B700000FE020202000000007F40404000000CE6
:104B800030C000000000000000010638C000000234
:104B90000202FE000000004040407F0000000000D4
:104BA00004020202040000000000000000000000F7
:104BB00000000000000080808080808080800002F3
:104BC00002040000000000000000000000000000DF
:104BD0008080808000000019242222223F2008F8D3
:104BE000008080000000003F112020110E00000016
:104BF000008080800000000E1120202011000000A5
:104C000000808088F800000E112020103F20000056
:104C1000808080800000001F22222222130000805A
:104C200080F0888888180020203F202000000000A5
:104C3000808080808000006B94949493600008F8DA
:104C4000008080800000203F210000203F20008065
:104C50009898000000000020203F20200000000065
:104C600000809898000000C08080807F000008F8D5
:104C7000000080808000203F24022D3020000008AA
:104C800008F8000000000020203F20200000808065
:104C9000808080808000203F20003F20003F808077
:104CA000008080800000203F210000203F20000085
:104CB000808080800000001F202020201F00808036
:104CC00000808000000080FFA12020110E00000065
:104CD000008080808000000E112020A0FF80808056
:104CE00080008080800020203F2120000100000003
:104CF00080808080800000332424242419000080D8
:104D000080E0808000000000001F202000008080E4
:104D1000000000808000001F202020103F208080A5
:104D200080000080808000010E3008060100808035
:104D30000080008080800F300C030C300F0000805A
:104D40008000808080000020312E0E312000808085
:104D500080000080808080818E70180601000080B5
:104D60008080808080000021302C222130000000D3
:104D70000000807C020200000000003F4040000272
:104D8000027C800000000040403F00000000000066
:104D90000000FF00000000000000FF000000722F74
:104DA00073000000C84D000800000020380000001B
:104DB000AC3C0008004E00083800002098050000B8
:104DC000BC3C000800000000000000000000484259
:104DD000000020410000A040010000001000000081
:104DE000AED580A83FD30040A1C8DA1281CFD9F157
:104DF000DB40A4A68D14AF000024F40000000000E6
:040000050800018965
:00000001FF
